{
  "contractName": "RocketRewardsPool",
  "abi": [
    {
      "inputs": [
        {
          "internalType": "contract RocketStorageInterface",
          "name": "_rocketStorageAddress",
          "type": "address"
        }
      ],
      "stateMutability": "nonpayable",
      "type": "constructor"
    },
    {
      "anonymous": false,
      "inputs": [
        {
          "indexed": true,
          "internalType": "uint256",
          "name": "rewardIndex",
          "type": "uint256"
        },
        {
          "components": [
            {
              "internalType": "uint256",
              "name": "rewardIndex",
              "type": "uint256"
            },
            {
              "internalType": "uint256",
              "name": "executionBlock",
              "type": "uint256"
            },
            {
              "internalType": "uint256",
              "name": "consensusBlock",
              "type": "uint256"
            },
            {
              "internalType": "bytes32",
              "name": "merkleRoot",
              "type": "bytes32"
            },
            {
              "internalType": "string",
              "name": "merkleTreeCID",
              "type": "string"
            },
            {
              "internalType": "uint256",
              "name": "intervalsPassed",
              "type": "uint256"
            },
            {
              "internalType": "uint256",
              "name": "treasuryRPL",
              "type": "uint256"
            },
            {
              "internalType": "uint256[]",
              "name": "trustedNodeRPL",
              "type": "uint256[]"
            },
            {
              "internalType": "uint256[]",
              "name": "nodeRPL",
              "type": "uint256[]"
            },
            {
              "internalType": "uint256[]",
              "name": "nodeETH",
              "type": "uint256[]"
            },
            {
              "internalType": "uint256",
              "name": "userETH",
              "type": "uint256"
            }
          ],
          "indexed": false,
          "internalType": "struct RewardSubmission",
          "name": "submission",
          "type": "tuple"
        },
        {
          "indexed": false,
          "internalType": "uint256",
          "name": "intervalStartTime",
          "type": "uint256"
        },
        {
          "indexed": false,
          "internalType": "uint256",
          "name": "intervalEndTime",
          "type": "uint256"
        },
        {
          "indexed": false,
          "internalType": "uint256",
          "name": "time",
          "type": "uint256"
        }
      ],
      "name": "RewardSnapshot",
      "type": "event"
    },
    {
      "anonymous": false,
      "inputs": [
        {
          "indexed": true,
          "internalType": "address",
          "name": "from",
          "type": "address"
        },
        {
          "indexed": true,
          "internalType": "uint256",
          "name": "rewardIndex",
          "type": "uint256"
        },
        {
          "components": [
            {
              "internalType": "uint256",
              "name": "rewardIndex",
              "type": "uint256"
            },
            {
              "internalType": "uint256",
              "name": "executionBlock",
              "type": "uint256"
            },
            {
              "internalType": "uint256",
              "name": "consensusBlock",
              "type": "uint256"
            },
            {
              "internalType": "bytes32",
              "name": "merkleRoot",
              "type": "bytes32"
            },
            {
              "internalType": "string",
              "name": "merkleTreeCID",
              "type": "string"
            },
            {
              "internalType": "uint256",
              "name": "intervalsPassed",
              "type": "uint256"
            },
            {
              "internalType": "uint256",
              "name": "treasuryRPL",
              "type": "uint256"
            },
            {
              "internalType": "uint256[]",
              "name": "trustedNodeRPL",
              "type": "uint256[]"
            },
            {
              "internalType": "uint256[]",
              "name": "nodeRPL",
              "type": "uint256[]"
            },
            {
              "internalType": "uint256[]",
              "name": "nodeETH",
              "type": "uint256[]"
            },
            {
              "internalType": "uint256",
              "name": "userETH",
              "type": "uint256"
            }
          ],
          "indexed": false,
          "internalType": "struct RewardSubmission",
          "name": "submission",
          "type": "tuple"
        },
        {
          "indexed": false,
          "internalType": "uint256",
          "name": "time",
          "type": "uint256"
        }
      ],
      "name": "RewardSnapshotSubmitted",
      "type": "event"
    },
    {
      "inputs": [],
      "name": "version",
      "outputs": [
        {
          "internalType": "uint8",
          "name": "",
          "type": "uint8"
        }
      ],
      "stateMutability": "view",
      "type": "function"
    },
    {
      "inputs": [],
      "name": "getRewardIndex",
      "outputs": [
        {
          "internalType": "uint256",
          "name": "",
          "type": "uint256"
        }
      ],
      "stateMutability": "view",
      "type": "function"
    },
    {
      "inputs": [],
      "name": "getRPLBalance",
      "outputs": [
        {
          "internalType": "uint256",
          "name": "",
          "type": "uint256"
        }
      ],
      "stateMutability": "view",
      "type": "function"
    },
    {
      "inputs": [],
      "name": "getPendingRPLRewards",
      "outputs": [
        {
          "internalType": "uint256",
          "name": "",
          "type": "uint256"
        }
      ],
      "stateMutability": "view",
      "type": "function"
    },
    {
      "inputs": [],
      "name": "getPendingETHRewards",
      "outputs": [
        {
          "internalType": "uint256",
          "name": "",
          "type": "uint256"
        }
      ],
      "stateMutability": "view",
      "type": "function"
    },
    {
      "inputs": [],
      "name": "getClaimIntervalTimeStart",
      "outputs": [
        {
          "internalType": "uint256",
          "name": "",
          "type": "uint256"
        }
      ],
      "stateMutability": "view",
      "type": "function"
    },
    {
      "inputs": [],
      "name": "getClaimIntervalTime",
      "outputs": [
        {
          "internalType": "uint256",
          "name": "",
          "type": "uint256"
        }
      ],
      "stateMutability": "view",
      "type": "function"
    },
    {
      "inputs": [],
      "name": "getClaimIntervalsPassed",
      "outputs": [
        {
          "internalType": "uint256",
          "name": "",
          "type": "uint256"
        }
      ],
      "stateMutability": "view",
      "type": "function"
    },
    {
      "inputs": [
        {
          "internalType": "string",
          "name": "_claimingContract",
          "type": "string"
        }
      ],
      "name": "getClaimingContractPerc",
      "outputs": [
        {
          "internalType": "uint256",
          "name": "",
          "type": "uint256"
        }
      ],
      "stateMutability": "view",
      "type": "function"
    },
    {
      "inputs": [
        {
          "internalType": "string[]",
          "name": "_claimingContracts",
          "type": "string[]"
        }
      ],
      "name": "getClaimingContractsPerc",
      "outputs": [
        {
          "internalType": "uint256[]",
          "name": "",
          "type": "uint256[]"
        }
      ],
      "stateMutability": "view",
      "type": "function"
    },
    {
      "inputs": [
        {
          "internalType": "address",
          "name": "_trustedNodeAddress",
          "type": "address"
        },
        {
          "internalType": "uint256",
          "name": "_rewardIndex",
          "type": "uint256"
        }
      ],
      "name": "getTrustedNodeSubmitted",
      "outputs": [
        {
          "internalType": "bool",
          "name": "",
          "type": "bool"
        }
      ],
      "stateMutability": "view",
      "type": "function"
    },
    {
      "inputs": [
        {
          "components": [
            {
              "internalType": "uint256",
              "name": "rewardIndex",
              "type": "uint256"
            },
            {
              "internalType": "uint256",
              "name": "executionBlock",
              "type": "uint256"
            },
            {
              "internalType": "uint256",
              "name": "consensusBlock",
              "type": "uint256"
            },
            {
              "internalType": "bytes32",
              "name": "merkleRoot",
              "type": "bytes32"
            },
            {
              "internalType": "string",
              "name": "merkleTreeCID",
              "type": "string"
            },
            {
              "internalType": "uint256",
              "name": "intervalsPassed",
              "type": "uint256"
            },
            {
              "internalType": "uint256",
              "name": "treasuryRPL",
              "type": "uint256"
            },
            {
              "internalType": "uint256[]",
              "name": "trustedNodeRPL",
              "type": "uint256[]"
            },
            {
              "internalType": "uint256[]",
              "name": "nodeRPL",
              "type": "uint256[]"
            },
            {
              "internalType": "uint256[]",
              "name": "nodeETH",
              "type": "uint256[]"
            },
            {
              "internalType": "uint256",
              "name": "userETH",
              "type": "uint256"
            }
          ],
          "internalType": "struct RewardSubmission",
          "name": "_submission",
          "type": "tuple"
        }
      ],
      "name": "getSubmissionCount",
      "outputs": [
        {
          "internalType": "uint256",
          "name": "",
          "type": "uint256"
        }
      ],
      "stateMutability": "view",
      "type": "function"
    },
    {
      "inputs": [
        {
          "components": [
            {
              "internalType": "uint256",
              "name": "rewardIndex",
              "type": "uint256"
            },
            {
              "internalType": "uint256",
              "name": "executionBlock",
              "type": "uint256"
            },
            {
              "internalType": "uint256",
              "name": "consensusBlock",
              "type": "uint256"
            },
            {
              "internalType": "bytes32",
              "name": "merkleRoot",
              "type": "bytes32"
            },
            {
              "internalType": "string",
              "name": "merkleTreeCID",
              "type": "string"
            },
            {
              "internalType": "uint256",
              "name": "intervalsPassed",
              "type": "uint256"
            },
            {
              "internalType": "uint256",
              "name": "treasuryRPL",
              "type": "uint256"
            },
            {
              "internalType": "uint256[]",
              "name": "trustedNodeRPL",
              "type": "uint256[]"
            },
            {
              "internalType": "uint256[]",
              "name": "nodeRPL",
              "type": "uint256[]"
            },
            {
              "internalType": "uint256[]",
              "name": "nodeETH",
              "type": "uint256[]"
            },
            {
              "internalType": "uint256",
              "name": "userETH",
              "type": "uint256"
            }
          ],
          "internalType": "struct RewardSubmission",
          "name": "_submission",
          "type": "tuple"
        }
      ],
      "name": "submitRewardSnapshot",
      "outputs": [],
      "stateMutability": "nonpayable",
      "type": "function"
    },
    {
      "inputs": [
        {
          "components": [
            {
              "internalType": "uint256",
              "name": "rewardIndex",
              "type": "uint256"
            },
            {
              "internalType": "uint256",
              "name": "executionBlock",
              "type": "uint256"
            },
            {
              "internalType": "uint256",
              "name": "consensusBlock",
              "type": "uint256"
            },
            {
              "internalType": "bytes32",
              "name": "merkleRoot",
              "type": "bytes32"
            },
            {
              "internalType": "string",
              "name": "merkleTreeCID",
              "type": "string"
            },
            {
              "internalType": "uint256",
              "name": "intervalsPassed",
              "type": "uint256"
            },
            {
              "internalType": "uint256",
              "name": "treasuryRPL",
              "type": "uint256"
            },
            {
              "internalType": "uint256[]",
              "name": "trustedNodeRPL",
              "type": "uint256[]"
            },
            {
              "internalType": "uint256[]",
              "name": "nodeRPL",
              "type": "uint256[]"
            },
            {
              "internalType": "uint256[]",
              "name": "nodeETH",
              "type": "uint256[]"
            },
            {
              "internalType": "uint256",
              "name": "userETH",
              "type": "uint256"
            }
          ],
          "internalType": "struct RewardSubmission",
          "name": "_submission",
          "type": "tuple"
        }
      ],
      "name": "executeRewardSnapshot",
      "outputs": [],
      "stateMutability": "nonpayable",
      "type": "function"
    }
  ],
  "bytecode": "0x608060405260008054610100600160a81b03191690553480156200002257600080fd5b5060405162002afd38038062002afd833981016040819052620000459162000078565b6000805460ff196001600160a01b0390931661010002610100600160a81b031990911617919091166002179055620000a8565b6000602082840312156200008a578081fd5b81516001600160a01b0381168114620000a1578182fd5b9392505050565b612a4580620000b86000396000f3fe608060405234801561001057600080fd5b50600436106100ea5760003560e01c80637425f1e71161008c578063cdfd4e1c11610066578063cdfd4e1c14610192578063e51920d3146101b2578063f21c150c146101c5578063f6a3f6ef146101cd576100ea565b80637425f1e71461017a578063b81bda5114610182578063ba34cb4b1461018a576100ea565b806347e884ef116100c857806347e884ef1461013557806350a2f7e51461014a57806354fd4d50146101525780635d3e8ffa14610167576100ea565b8063043877d0146100ef578063204e2a0a1461010d5780632198e62c1461012d575b600080fd5b6100f76101e0565b6040516101049190612863565b60405180910390f35b61012061011b366004611eff565b61020a565b60405161010491906122fb565b6100f7610246565b610148610143366004612036565b610355565b005b6100f76106f4565b61015a61077d565b6040516101049190612887565b610148610175366004612036565b610786565b6100f7610ea9565b6100f7610f81565b6100f7610fdf565b6101a56101a0366004611f42565b61100a565b60405161010491906122b7565b6100f76101c0366004612036565b611164565b6100f7611195565b6100f76101db366004611ffb565b6111c0565b60006102056101ed6106f4565b6101ff6101f8610fdf565b42906112ad565b9061130a565b905090565b600061023d838360405160200161022292919061267b565b60405160208183030381529060405280519060200120611371565b90505b92915050565b6000806102876040518060400160405280600b81526020017f726f636b65745661756c74000000000000000000000000000000000000000000815250611417565b90508073ffffffffffffffffffffffffffffffffffffffff1663eccefff66102e36040518060400160405280600e81526020017f726f636b6574546f6b656e52504c000000000000000000000000000000000000815250611417565b6040518263ffffffff1660e01b81526004016102ff919061254b565b60206040518083038186803b15801561031757600080fd5b505afa15801561032b573d6000803e3d6000fd5b505050506040513d601f19601f8201168201806040525081019061034f919061206f565b91505090565b6040518060400160405280601181526020017f726f636b657452657761726473506f6f6c000000000000000000000000000000815250306104488260405160200180807f636f6e74726163742e616464726573730000000000000000000000000000000081525060100182805190602001908083835b6020831061040857805182527fffffffffffffffffffffffffffffffffffffffffffffffffffffffffffffffe090920191602091820191016103cb565b6001836020036101000a038019825116818451168082178552505050505050905001915050604051602081830303815290604052805190602001206114ff565b73ffffffffffffffffffffffffffffffffffffffff168173ffffffffffffffffffffffffffffffffffffffff16146104c7576040805162461bcd60e51b815260206004820152601c60248201527f496e76616c6964206f72206f7574646174656420636f6e747261637400000000604482015290519081900360640190fd5b6104cf611195565b8335146104f75760405162461bcd60e51b81526004016104ee90612377565b60405180910390fd5b60008360405160200161050a91906125a0565b604051602081830303815290604052805190602001209050600061052d82611573565b9050600061056f6040518060400160405280601481526020017f726f636b657444414f4e6f646554727573746564000000000000000000000000815250611417565b905060006105b16040518060400160405280602081526020017f726f636b657444414f50726f746f636f6c53657474696e67734e6574776f726b815250611417565b90508073ffffffffffffffffffffffffffffffffffffffff16631f66e8ed6040518163ffffffff1660e01b815260040160206040518083038186803b1580156105f957600080fd5b505afa15801561060d573d6000803e3d6000fd5b505050506040513d601f19601f82011682018060405250810190610631919061206f565b6106c48373ffffffffffffffffffffffffffffffffffffffff1663997072f76040518163ffffffff1660e01b815260040160206040518083038186803b15801561067a57600080fd5b505afa15801561068e573d6000803e3d6000fd5b505050506040513d601f19601f820116820180604052508101906106b2919061206f565b6101ff670de0b6b3a7640000876115e7565b10156106e25760405162461bcd60e51b81526004016104ee90612710565b6106eb87611640565b50505050505050565b6000806107356040518060400160405280602081526020017f726f636b657444414f50726f746f636f6c53657474696e677352657761726473815250611417565b90508073ffffffffffffffffffffffffffffffffffffffff166394e5d5126040518163ffffffff1660e01b815260040160206040518083038186803b15801561031757600080fd5b60005460ff1681565b6040518060400160405280601181526020017f726f636b657452657761726473506f6f6c000000000000000000000000000000815250306108388260405160200180807f636f6e74726163742e616464726573730000000000000000000000000000000081525060100182805190602001908083836020831061040857805182527fffffffffffffffffffffffffffffffffffffffffffffffffffffffffffffffe090920191602091820191016103cb565b73ffffffffffffffffffffffffffffffffffffffff168173ffffffffffffffffffffffffffffffffffffffff16146108b7576040805162461bcd60e51b815260206004820152601c60248201527f496e76616c6964206f72206f7574646174656420636f6e747261637400000000604482015290519081900360640190fd5b604080517f64616f2e747275737465646e6f6465732e0000000000000000000000000000006020808301919091527f6d656d6265720000000000000000000000000000000000000000000000000000603183015233606081901b60378401528351602b818503018152604b909301909352815191012061093690611371565b610987576040805162461bcd60e51b815260206004820152601460248201527f496e76616c69642074727573746564206e6f6465000000000000000000000000604482015290519081900360640190fd5b60006109c76040518060400160405280602081526020017f726f636b657444414f50726f746f636f6c53657474696e67734e6574776f726b815250611417565b90508073ffffffffffffffffffffffffffffffffffffffff166363ed62da6040518163ffffffff1660e01b815260040160206040518083038186803b158015610a0f57600080fd5b505afa158015610a23573d6000803e3d6000fd5b505050506040513d601f19601f82011682018060405250810190610a479190611fdb565b610a635760405162461bcd60e51b81526004016104ee906126b3565b610a6b611195565b853514610a8a5760405162461bcd60e51b81526004016104ee906127b5565b60008560a0013511610aae5760405162461bcd60e51b81526004016104ee906125e7565b610abb60e0860186612895565b9050610acb610100870187612895565b9050148015610af65750610ae3610120860186612895565b9050610af260e0870187612895565b9050145b610b125760405162461bcd60e51b81526004016104ee906123d4565b60c085013560005b610b28610100880188612895565b9050811015610b6c57610b62610b42610100890189612895565b83818110610b4c57fe5b9050602002013583611c6d90919063ffffffff16565b9150600101610b1a565b5060005b610b7d60e0880188612895565b9050811015610ba057610b96610b4260e0890189612895565b9150600101610b70565b50610ba9610ea9565b811115610bc85760405162461bcd60e51b81526004016104ee9061277e565b506000805b610bdb610120880188612895565b9050811015610bff57610bf5610b42610120890189612895565b9150600101610bcd565b50610c08610f81565b811115610c275760405162461bcd60e51b81526004016104ee90612747565b506000803387604051602001610c3e92919061240b565b604051602081830303815290604052805190602001209050610c5f81611371565b15610c7c5760405162461bcd60e51b81526004016104ee90612644565b610c87816001611cc7565b604051610cbc90610c9f9033908a359060200161267b565b604051602081830303815290604052805190602001206001611cc7565b50600086604051602001610cd091906125a0565b604051602081830303815290604052805190602001209050610cfc6001610cf683611573565b90611c6d565b9150610d088183611d5d565b5060405186359033907ffd79146848f3e0373e2f8c70e8dcaa5e38ccdff023f81b209bdbadde07a917ca90610d40908a904290612812565b60405180910390a36000610d886040518060400160405280601481526020017f726f636b657444414f4e6f646554727573746564000000000000000000000000815250611417565b90508273ffffffffffffffffffffffffffffffffffffffff16631f66e8ed6040518163ffffffff1660e01b815260040160206040518083038186803b158015610dd057600080fd5b505afa158015610de4573d6000803e3d6000fd5b505050506040513d601f19601f82011682018060405250810190610e08919061206f565b610e9b8273ffffffffffffffffffffffffffffffffffffffff1663997072f76040518163ffffffff1660e01b815260040160206040518083038186803b158015610e5157600080fd5b505afa158015610e65573d6000803e3d6000fd5b505050506040513d601f19601f82011682018060405250810190610e89919061206f565b6101ff670de0b6b3a7640000866115e7565b106106eb576106eb87611640565b600080610eea6040518060400160405280600e81526020017f726f636b6574546f6b656e52504c000000000000000000000000000000000000815250611417565b905060008173ffffffffffffffffffffffffffffffffffffffff1663c1a260066040518163ffffffff1660e01b815260040160206040518083038186803b158015610f3457600080fd5b505afa158015610f48573d6000803e3d6000fd5b505050506040513d601f19601f82011682018060405250810190610f6c919061206f565b9050610f7a81610cf6610246565b9250505090565b600080610fc26040518060400160405280601381526020017f726f636b6574536d6f6f7468696e67506f6f6c00000000000000000000000000815250611417565b73ffffffffffffffffffffffffffffffffffffffff163191505090565b60006102057f4fe51b56935f087fa6dd937224299a085a629f85787014a3716e94b165668ee2611573565b6060600061104c6040518060400160405280602081526020017f726f636b657444414f50726f746f636f6c53657474696e677352657761726473815250611417565b90506000835167ffffffffffffffff8111801561106857600080fd5b50604051908082528060200260200182016040528015611092578160200160208202803683370190505b50905060005b845181101561115c578273ffffffffffffffffffffffffffffffffffffffff1663d4f4697e8683815181106110c957fe5b60200260200101516040518263ffffffff1660e01b81526004016110ed9190612306565b60206040518083038186803b15801561110557600080fd5b505afa158015611119573d6000803e3d6000fd5b505050506040513d601f19601f8201168201806040525081019061113d919061206f565b82828151811061114957fe5b6020908102919091010152600101611098565b509392505050565b60006102408260405160200161117a91906125a0565b60405160208183030381529060405280519060200120611573565b60006102057f27219897303c7009208494bfca902012e7331aba8a8f23e5edd89abeb61748f7611573565b6000806112016040518060400160405280602081526020017f726f636b657444414f50726f746f636f6c53657474696e677352657761726473815250611417565b6040517fd4f4697e00000000000000000000000000000000000000000000000000000000815290915073ffffffffffffffffffffffffffffffffffffffff82169063d4f4697e90611256908690600401612306565b60206040518083038186803b15801561126e57600080fd5b505afa158015611282573d6000803e3d6000fd5b505050506040513d601f19601f820116820180604052508101906112a6919061206f565b9392505050565b600082821115611304576040805162461bcd60e51b815260206004820152601e60248201527f536166654d6174683a207375627472616374696f6e206f766572666c6f770000604482015290519081900360640190fd5b50900390565b6000808211611360576040805162461bcd60e51b815260206004820152601a60248201527f536166654d6174683a206469766973696f6e206279207a65726f000000000000604482015290519081900360640190fd5b81838161136957fe5b049392505050565b60008060019054906101000a900473ffffffffffffffffffffffffffffffffffffffff1673ffffffffffffffffffffffffffffffffffffffff16637ae1cfca836040518263ffffffff1660e01b81526004018082815260200191505060206040518083038186803b1580156113e557600080fd5b505afa1580156113f9573d6000803e3d6000fd5b505050506040513d602081101561140f57600080fd5b505192915050565b6000806114958360405160200180807f636f6e74726163742e616464726573730000000000000000000000000000000081525060100182805190602001908083836020831061040857805182527fffffffffffffffffffffffffffffffffffffffffffffffffffffffffffffffe090920191602091820191016103cb565b905073ffffffffffffffffffffffffffffffffffffffff8116610240576040805162461bcd60e51b815260206004820152601260248201527f436f6e7472616374206e6f7420666f756e640000000000000000000000000000604482015290519081900360640190fd5b60008060019054906101000a900473ffffffffffffffffffffffffffffffffffffffff1673ffffffffffffffffffffffffffffffffffffffff166321f8a721836040518263ffffffff1660e01b81526004018082815260200191505060206040518083038186803b1580156113e557600080fd5b60008060019054906101000a900473ffffffffffffffffffffffffffffffffffffffff1673ffffffffffffffffffffffffffffffffffffffff1663bd02d0f5836040518263ffffffff1660e01b81526004018082815260200191505060206040518083038186803b1580156113e557600080fd5b6000826115f657506000610240565b8282028284828161160357fe5b041461023d5760405162461bcd60e51b81526004018080602001828103825260218152602001806129ef6021913960400191505060405180910390fd5b60006116806040518060400160405280600e81526020017f726f636b6574546f6b656e52504c000000000000000000000000000000000000815250611417565b905060006116c26040518060400160405280600b81526020017f726f636b65745661756c74000000000000000000000000000000000000000000815250611417565b90508173ffffffffffffffffffffffffffffffffffffffff1663088240036040518163ffffffff1660e01b8152600401602060405180830381600087803b15801561170c57600080fd5b505af1158015611720573d6000803e3d6000fd5b505050506040513d601f19601f82011682018060405250810190611744919061206f565b5061174d611dd6565b6000611757610fdf565b9050600061177b6117748660a0013561176e6106f4565b906115e7565b8390611c6d565b905084600001357f61caab0be2a0f10d869a5f437dab4535eb8e9c868b8c1fc68f3e5c10d0cd8f66868484426040516117b79493929190612834565b60405180910390a26117e97f4fe51b56935f087fa6dd937224299a085a629f85787014a3716e94b165668ee282611d5d565b60c08501351561187e576040517fee91035e00000000000000000000000000000000000000000000000000000000815273ffffffffffffffffffffffffffffffffffffffff84169063ee91035e9061184b90879060c08a013590600401612494565b600060405180830381600087803b15801561186557600080fd5b505af1158015611879573d6000803e3d6000fd5b505050505b60006118be6040518060400160405280601381526020017f726f636b6574536d6f6f7468696e67506f6f6c00000000000000000000000000815250611417565b90506101408601351561199b57600061190b6040518060400160405280600f81526020017f726f636b6574546f6b656e524554480000000000000000000000000000000000815250611417565b6040517f522f681500000000000000000000000000000000000000000000000000000000815290915073ffffffffffffffffffffffffffffffffffffffff83169063522f6815906119679084906101408c013590600401612291565b600060405180830381600087803b15801561198157600080fd5b505af1158015611995573d6000803e3d6000fd5b50505050505b60005b6119ac610100880188612895565b90508110156106eb576000611a086119c760e08a018a612895565b848181106119d157fe5b90506020020135898061010001906119e99190612895565b858181106119f357fe5b90506020020135611c6d90919063ffffffff16565b90506000611a1a6101208a018a612895565b84818110611a2457fe5b905060200201359050816000148015611a3b575080155b15611a47575050611c65565b600080600085604051602001611a5d919061222f565b604051602081830303815290604052805190602001209050611a7e816114ff565b915073ffffffffffffffffffffffffffffffffffffffff8216611ab35760405162461bcd60e51b81526004016104ee906124ee565b5090508215611b45576040517f01e3366700000000000000000000000000000000000000000000000000000000815273ffffffffffffffffffffffffffffffffffffffff8916906301e3366790611b129084908d908890600401612260565b600060405180830381600087803b158015611b2c57600080fd5b505af1158015611b40573d6000803e3d6000fd5b505050505b8115611bd2576040517f522f681500000000000000000000000000000000000000000000000000000000815273ffffffffffffffffffffffffffffffffffffffff86169063522f681590611b9f9084908690600401612291565b600060405180830381600087803b158015611bb957600080fd5b505af1158015611bcd573d6000803e3d6000fd5b505050505b6040517fe44ba18f00000000000000000000000000000000000000000000000000000000815273ffffffffffffffffffffffffffffffffffffffff82169063e44ba18f90611c2f908d359060608f0135908890889060040161286c565b600060405180830381600087803b158015611c4957600080fd5b505af1158015611c5d573d6000803e3d6000fd5b505050505050505b60010161199e565b60008282018381101561023d576040805162461bcd60e51b815260206004820152601b60248201527f536166654d6174683a206164646974696f6e206f766572666c6f770000000000604482015290519081900360640190fd5b60008054604080517fabfdcced000000000000000000000000000000000000000000000000000000008152600481018690528415156024820152905161010090920473ffffffffffffffffffffffffffffffffffffffff169263abfdcced9260448084019382900301818387803b158015611d4157600080fd5b505af1158015611d55573d6000803e3d6000fd5b505050505050565b60008054604080517fe2a4853a0000000000000000000000000000000000000000000000000000000081526004810186905260248101859052905161010090920473ffffffffffffffffffffffffffffffffffffffff169263e2a4853a9260448084019382900301818387803b158015611d4157600080fd5b611e017f27219897303c7009208494bfca902012e7331aba8a8f23e5edd89abeb61748f76001611e03565b565b60008054604080517fadb353dc0000000000000000000000000000000000000000000000000000000081526004810186905260248101859052905161010090920473ffffffffffffffffffffffffffffffffffffffff169263adb353dc9260448084019382900301818387803b158015611d4157600080fd5b600082601f830112611e8c578081fd5b813567ffffffffffffffff811115611ea057fe5b611ed160207fffffffffffffffffffffffffffffffffffffffffffffffffffffffffffffffe0601f84011601612901565b818152846020838601011115611ee5578283fd5b816020850160208301379081016020019190915292915050565b60008060408385031215611f11578182fd5b823573ffffffffffffffffffffffffffffffffffffffff81168114611f34578283fd5b946020939093013593505050565b60006020808385031215611f54578182fd5b823567ffffffffffffffff80821115611f6b578384fd5b818501915085601f830112611f7e578384fd5b813581811115611f8a57fe5b611f978485830201612901565b8181528481019250838501865b83811015611fcd57611fbb8a888435890101611e7c565b85529386019390860190600101611fa4565b509098975050505050505050565b600060208284031215611fec578081fd5b8151801515811461023d578182fd5b60006020828403121561200c578081fd5b813567ffffffffffffffff811115612022578182fd5b61202e84828501611e7c565b949350505050565b600060208284031215612047578081fd5b813567ffffffffffffffff81111561205d578182fd5b8201610160818503121561023d578182fd5b600060208284031215612080578081fd5b5051919050565b60008284527f07ffffffffffffffffffffffffffffffffffffffffffffffffffffffffffffff8311156120b8578081fd5b6020830280836020870137939093016020019283525090919050565b600082845282826020860137806020848601015260207fffffffffffffffffffffffffffffffffffffffffffffffffffffffffffffffe0601f85011685010190509392505050565b601f81527f726577617264732e736e617073686f742e7375626d69747465642e6e6f646500602082015260400190565b600061016082358452602083013560208501526040830135604085015260608301356060850152612180608084018461298b565b82608087015261219383870182846120d4565b9250505060a083013560a085015260c083013560c08501526121b860e0840184612925565b85830360e08701526121cb838284612087565b925050506101006121de81850185612925565b868403838801526121f0848284612087565b935050505061012061220481850185612925565b86840383880152612216848284612087565b6101409687013597909601969096525092949350505050565b7f726577617264732e72656c61792e6164647265737300000000000000000000008152601581019190915260350190565b73ffffffffffffffffffffffffffffffffffffffff9384168152919092166020820152604081019190915260600190565b73ffffffffffffffffffffffffffffffffffffffff929092168252602082015260400190565b6020808252825182820181905260009190848201906040850190845b818110156122ef578351835292840192918401916001016122d3565b50909695505050505050565b901515815260200190565b6000602080835283518082850152825b8181101561233257858101830151858201604001528201612316565b818111156123435783604083870101525b50601f017fffffffffffffffffffffffffffffffffffffffffffffffffffffffffffffffe016929092016040019392505050565b60208082526029908201527f43616e206f6e6c79206578656375746520736e617073686f7420666f72206e6560408201527f787420706572696f640000000000000000000000000000000000000000000000606082015260800190565b60208082526014908201527f496e76616c6964206172726179206c656e677468000000000000000000000000604082015260600190565b600060608252602360608301527f726577617264732e736e617073686f742e7375626d69747465642e6e6f64652e60808301527f6b6579000000000000000000000000000000000000000000000000000000000060a083015273ffffffffffffffffffffffffffffffffffffffff8416602083015260c0604083015261202e60c083018461214c565b6060808252600e908201527f726f636b6574436c61696d44414f000000000000000000000000000000000000608082015273ffffffffffffffffffffffffffffffffffffffff929092166020830152604082015260a00190565b6020808252602d908201527f536e617073686f7420636f6e7461696e73207265776172647320666f7220696e60408201527f76616c6964206e6574776f726b00000000000000000000000000000000000000606082015260800190565b60408082526011908201527f726f636b657452657761726473506f6f6c000000000000000000000000000000606082015273ffffffffffffffffffffffffffffffffffffffff91909116602082015260800190565b600060408252602060408301527f726577617264732e736e617073686f742e7375626d69747465642e636f756e7460608301526080602083015261023d608083018461214c565b60208082526022908201527f496e76616c6964206e756d626572206f6620696e74657276616c73207061737360408201527f6564000000000000000000000000000000000000000000000000000000000000606082015260800190565b6020808252601e908201527f4475706c6963617465207375626d697373696f6e2066726f6d206e6f64650000604082015260600190565b60006060825261268d6060830161211c565b73ffffffffffffffffffffffffffffffffffffffff949094166020830152506040015290565b60208082526028908201527f5375626d697474696e6720726577617264732069732063757272656e746c792060408201527f64697361626c6564000000000000000000000000000000000000000000000000606082015260800190565b6020808252601e908201527f436f6e73656e73757320686173206e6f74206265656e20726561636865640000604082015260600190565b60208082526013908201527f496e76616c696420455448207265776172647300000000000000000000000000604082015260600190565b60208082526013908201527f496e76616c69642052504c207265776172647300000000000000000000000000604082015260600190565b60208082526028908201527f43616e206f6e6c79207375626d697420736e617073686f7420666f72206e657860408201527f7420706572696f64000000000000000000000000000000000000000000000000606082015260800190565b600060408252612825604083018561214c565b90508260208301529392505050565b600060808252612847608083018761214c565b6020830195909552506040810192909252606090910152919050565b90815260200190565b93845260208401929092526040830152606082015260800190565b60ff91909116815260200190565b60008083357fffffffffffffffffffffffffffffffffffffffffffffffffffffffffffffffe18436030181126128c9578283fd5b83018035915067ffffffffffffffff8211156128e3578283fd5b60209081019250810236038213156128fa57600080fd5b9250929050565b60405181810167ffffffffffffffff8111828210171561291d57fe5b604052919050565b60008083357fffffffffffffffffffffffffffffffffffffffffffffffffffffffffffffffe1843603018112612959578283fd5b830160208101925035905067ffffffffffffffff81111561297957600080fd5b6020810236038313156128fa57600080fd5b60008083357fffffffffffffffffffffffffffffffffffffffffffffffffffffffffffffffe18436030181126129bf578283fd5b830160208101925035905067ffffffffffffffff8111156129df57600080fd5b8036038313156128fa57600080fdfe536166654d6174683a206d756c7469706c69636174696f6e206f766572666c6f77a2646970667358221220b7419bbce5ca24b3b511743955dbeebcf48f145a56c9f4d92eb4c0d14fd25c5d64736f6c63430007060033",
  "immutableReferences": {},
  "source": "pragma solidity 0.7.6;\npragma abicoder v2;\n\n// SPDX-License-Identifier: GPL-3.0-only\n\nimport \"../RocketBase.sol\";\nimport \"../../interface/token/RocketTokenRPLInterface.sol\";\nimport \"../../interface/rewards/RocketRewardsPoolInterface.sol\";\nimport \"../../interface/dao/protocol/settings/RocketDAOProtocolSettingsNetworkInterface.sol\";\nimport \"../../interface/dao/node/RocketDAONodeTrustedInterface.sol\";\nimport \"../../interface/network/RocketNetworkBalancesInterface.sol\";\nimport \"../../interface/RocketVaultInterface.sol\";\nimport \"../../interface/dao/protocol/settings/RocketDAOProtocolSettingsRewardsInterface.sol\";\nimport \"../../interface/rewards/RocketRewardsRelayInterface.sol\";\nimport \"../../interface/rewards/RocketSmoothingPoolInterface.sol\";\nimport \"../../types/RewardSubmission.sol\";\nimport \"@openzeppelin/contracts/math/SafeMath.sol\";\n\n\n// Holds RPL generated by the network for claiming from stakers (node operators etc)\n\ncontract RocketRewardsPool is RocketBase, RocketRewardsPoolInterface {\n\n    // Libs\n    using SafeMath for uint256;\n\n    // Events\n    event RewardSnapshotSubmitted(address indexed from, uint256 indexed rewardIndex, RewardSubmission submission, uint256 time);\n    event RewardSnapshot(uint256 indexed rewardIndex, RewardSubmission submission, uint256 intervalStartTime, uint256 intervalEndTime, uint256 time);\n\n    // Construct\n    constructor(RocketStorageInterface _rocketStorageAddress) RocketBase(_rocketStorageAddress) {\n        // Version\n        version = 2;\n    }\n\n    function getRewardIndex() override public view returns(uint256) {\n        return getUint(keccak256(\"rewards.snapshot.index\"));\n    }\n    function incrementRewardIndex() private {\n        addUint(keccak256(\"rewards.snapshot.index\"), 1);\n    }\n\n    /**\n    * Get how much RPL the Rewards Pool contract currently has assigned to it as a whole\n    * @return uint256 Returns rpl balance of rocket rewards contract\n    */\n    function getRPLBalance() override public view returns(uint256) {\n        // Get the vault contract instance\n        RocketVaultInterface rocketVault = RocketVaultInterface(getContractAddress(\"rocketVault\"));\n        // Check contract RPL balance\n        return rocketVault.balanceOfToken(\"rocketRewardsPool\", IERC20(getContractAddress(\"rocketTokenRPL\")));\n    }\n\n    // Returns the total amount of RPL that needs to be distributed to claimers at the current block\n    function getPendingRPLRewards() override public view returns (uint256) {\n        RocketTokenRPLInterface rplContract = RocketTokenRPLInterface(getContractAddress(\"rocketTokenRPL\"));\n        uint256 pendingInflation = rplContract.inflationCalculate();\n        // Any inflation that has accrued so far plus any amount that would be minted if we called it now\n        return getRPLBalance().add(pendingInflation);\n    }\n\n    // Returns the total amount of ETH in the smoothing pool ready to be distributed\n    function getPendingETHRewards() override public view returns (uint256) {\n        address rocketSmoothingPoolAddress = getContractAddress(\"rocketSmoothingPool\");\n        return rocketSmoothingPoolAddress.balance;\n    }\n\n    /**\n    * Get the last set interval start time\n    * @return uint256 Last set start timestamp for a claim interval\n    */\n    function getClaimIntervalTimeStart() override public view returns(uint256) {\n        return getUint(keccak256(\"rewards.pool.claim.interval.time.start\"));\n    }\n\n    /**\n    * Get how many seconds in a claim interval\n    * @return uint256 Number of seconds in a claim interval\n    */\n    function getClaimIntervalTime() override public view returns(uint256) {\n        // Get from the DAO settings\n        RocketDAOProtocolSettingsRewardsInterface daoSettingsRewards = RocketDAOProtocolSettingsRewardsInterface(getContractAddress(\"rocketDAOProtocolSettingsRewards\"));\n        return daoSettingsRewards.getRewardsClaimIntervalTime();\n    }\n\n    /**\n    * Compute intervals since last claim period\n    * @return uint256 Time intervals since last update\n    */\n    function getClaimIntervalsPassed() override public view returns(uint256) {\n        return block.timestamp.sub(getClaimIntervalTimeStart()).div(getClaimIntervalTime());\n    }\n\n    /**\n    * Get the percentage this contract can claim in this interval\n    * @return uint256 Rewards percentage this contract can claim in this interval\n    */\n    function getClaimingContractPerc(string memory _claimingContract) override public view returns (uint256) {\n        // Load contract\n        RocketDAOProtocolSettingsRewardsInterface daoSettingsRewards = RocketDAOProtocolSettingsRewardsInterface(getContractAddress(\"rocketDAOProtocolSettingsRewards\"));\n        // Get the % amount allocated to this claim contract\n        return daoSettingsRewards.getRewardsClaimerPerc(_claimingContract);\n    }\n\n    /**\n    * Get an array of percentages that the given contracts can claim in this interval\n    * @return uint256[] Array of percentages in the order of the supplied contract names\n    */\n    function getClaimingContractsPerc(string[] memory _claimingContracts) override external view returns (uint256[] memory) {\n        // Load contract\n        RocketDAOProtocolSettingsRewardsInterface daoSettingsRewards = RocketDAOProtocolSettingsRewardsInterface(getContractAddress(\"rocketDAOProtocolSettingsRewards\"));\n        // Get the % amount allocated to this claim contract\n        uint256[] memory percentages = new uint256[](_claimingContracts.length);\n        for (uint256 i = 0; i < _claimingContracts.length; i++){\n            percentages[i] = daoSettingsRewards.getRewardsClaimerPerc(_claimingContracts[i]);\n        }\n        return percentages;\n    }\n\n    // Returns whether a trusted node has submitted for a given reward index\n    function getTrustedNodeSubmitted(address _trustedNodeAddress, uint256 _rewardIndex) override external view returns (bool) {\n        return getBool(keccak256(abi.encode(\"rewards.snapshot.submitted.node\", _trustedNodeAddress, _rewardIndex)));\n    }\n\n    // Returns the number of trusted nodes who have agreed to the given submission\n    function getSubmissionCount(RewardSubmission calldata _submission) override external view returns (uint256) {\n        return getUint(keccak256(abi.encode(\"rewards.snapshot.submitted.count\", _submission)));\n    }\n\n    // Submit a reward snapshot\n    // Only accepts calls from trusted (oracle) nodes\n    function submitRewardSnapshot(RewardSubmission calldata _submission) override external onlyLatestContract(\"rocketRewardsPool\", address(this)) onlyTrustedNode(msg.sender) {\n        // Get contracts\n        RocketDAOProtocolSettingsNetworkInterface rocketDAOProtocolSettingsNetwork = RocketDAOProtocolSettingsNetworkInterface(getContractAddress(\"rocketDAOProtocolSettingsNetwork\"));\n        // Check submission is currently enabled\n        require(rocketDAOProtocolSettingsNetwork.getSubmitRewardsEnabled(), \"Submitting rewards is currently disabled\");\n        // Validate inputs\n        require(_submission.rewardIndex == getRewardIndex(), \"Can only submit snapshot for next period\");\n        require(_submission.intervalsPassed > 0, \"Invalid number of intervals passed\");\n        require(_submission.nodeRPL.length == _submission.trustedNodeRPL.length && _submission.trustedNodeRPL.length == _submission.nodeETH.length, \"Invalid array length\");\n        // Calculate RPL reward total and validate\n        { // Scope to prevent stake too deep\n            uint256 totalRewardsRPL = _submission.treasuryRPL;\n            for (uint256 i = 0; i < _submission.nodeRPL.length; i++){\n                totalRewardsRPL = totalRewardsRPL.add(_submission.nodeRPL[i]);\n            }\n            for (uint256 i = 0; i < _submission.trustedNodeRPL.length; i++){\n                totalRewardsRPL = totalRewardsRPL.add(_submission.trustedNodeRPL[i]);\n            }\n            require(totalRewardsRPL <= getPendingRPLRewards(), \"Invalid RPL rewards\");\n        }\n        // Calculate ETH reward total and validate\n        { // Scope to prevent stack too deep\n            uint256 totalRewardsETH = 0;\n            for (uint256 i = 0; i < _submission.nodeETH.length; i++){\n                totalRewardsETH = totalRewardsETH.add(_submission.nodeETH[i]);\n            }\n            require(totalRewardsETH <= getPendingETHRewards(), \"Invalid ETH rewards\");\n        }\n        // Store and increment vote\n        uint256 submissionCount;\n        { // Scope to prevent stack too deep\n            // Check & update node submission status\n            bytes32 nodeSubmissionKey = keccak256(abi.encode(\"rewards.snapshot.submitted.node.key\", msg.sender, _submission));\n            require(!getBool(nodeSubmissionKey), \"Duplicate submission from node\");\n            setBool(nodeSubmissionKey, true);\n            setBool(keccak256(abi.encode(\"rewards.snapshot.submitted.node\", msg.sender, _submission.rewardIndex)), true);\n        }\n        { // Scope to prevent stack too deep\n            // Increment submission count\n            bytes32 submissionCountKey = keccak256(abi.encode(\"rewards.snapshot.submitted.count\", _submission));\n            submissionCount = getUint(submissionCountKey).add(1);\n            setUint(submissionCountKey, submissionCount);\n        }\n        // Emit snapshot submitted event\n        emit RewardSnapshotSubmitted(msg.sender, _submission.rewardIndex, _submission, block.timestamp);\n        // If consensus is reached, execute the snapshot\n        RocketDAONodeTrustedInterface rocketDAONodeTrusted = RocketDAONodeTrustedInterface(getContractAddress(\"rocketDAONodeTrusted\"));\n        if (calcBase.mul(submissionCount).div(rocketDAONodeTrusted.getMemberCount()) >= rocketDAOProtocolSettingsNetwork.getNodeConsensusThreshold()) {\n            _executeRewardSnapshot(_submission);\n        }\n    }\n\n    // Executes reward snapshot if consensus threshold is reached\n    function executeRewardSnapshot(RewardSubmission calldata _submission) override external onlyLatestContract(\"rocketRewardsPool\", address(this)) {\n        // Validate reward index of submission\n        require(_submission.rewardIndex == getRewardIndex(), \"Can only execute snapshot for next period\");\n        // Get submission count\n        bytes32 submissionCountKey = keccak256(abi.encode(\"rewards.snapshot.submitted.count\", _submission));\n        uint256 submissionCount = getUint(submissionCountKey);\n        // Confirm consensus and execute\n        RocketDAONodeTrustedInterface rocketDAONodeTrusted = RocketDAONodeTrustedInterface(getContractAddress(\"rocketDAONodeTrusted\"));\n        RocketDAOProtocolSettingsNetworkInterface rocketDAOProtocolSettingsNetwork = RocketDAOProtocolSettingsNetworkInterface(getContractAddress(\"rocketDAOProtocolSettingsNetwork\"));\n        require(calcBase.mul(submissionCount).div(rocketDAONodeTrusted.getMemberCount()) >= rocketDAOProtocolSettingsNetwork.getNodeConsensusThreshold(), \"Consensus has not been reached\");\n        _executeRewardSnapshot(_submission);\n    }\n\n    // Executes reward snapshot and sends assets to the relays for distribution to reward recipients\n    function _executeRewardSnapshot(RewardSubmission calldata _submission) private {\n        // Get contract\n        RocketTokenRPLInterface rplContract = RocketTokenRPLInterface(getContractAddress(\"rocketTokenRPL\"));\n        RocketVaultInterface rocketVault = RocketVaultInterface(getContractAddress(\"rocketVault\"));\n        // Execute inflation if required\n        rplContract.inflationMintTokens();\n        // Increment the reward index and update the claim interval timestamp\n        incrementRewardIndex();\n        uint256 claimIntervalTimeStart = getClaimIntervalTimeStart();\n        uint256 claimIntervalTimeEnd = claimIntervalTimeStart.add(getClaimIntervalTime().mul(_submission.intervalsPassed));\n        // Emit reward snapshot event\n        emit RewardSnapshot(_submission.rewardIndex, _submission, claimIntervalTimeStart, claimIntervalTimeEnd, block.timestamp);\n        setUint(keccak256(\"rewards.pool.claim.interval.time.start\"), claimIntervalTimeEnd);\n        // Send out the treasury rewards\n        if (_submission.treasuryRPL > 0) {\n            rocketVault.transferToken(\"rocketClaimDAO\", rplContract, _submission.treasuryRPL);\n        }\n        // Get the smoothing pool instance\n        RocketSmoothingPoolInterface rocketSmoothingPool = RocketSmoothingPoolInterface(getContractAddress(\"rocketSmoothingPool\"));\n        // Send deposit pool user's ETH\n        if (_submission.userETH > 0) {\n            address rocketTokenRETHAddress = getContractAddress(\"rocketTokenRETH\");\n            rocketSmoothingPool.withdrawEther(rocketTokenRETHAddress, _submission.userETH);\n        }\n        // Loop over each network and distribute rewards\n        for (uint i = 0; i < _submission.nodeRPL.length; i++) {\n            // Quick out if no rewards for this network\n            uint256 rewardsRPL = _submission.nodeRPL[i].add(_submission.trustedNodeRPL[i]);\n            uint256 rewardsETH = _submission.nodeETH[i];\n            if (rewardsRPL == 0 && rewardsETH == 0) {\n                continue;\n            }\n            // Grab the relay address\n            RocketRewardsRelayInterface relay;\n            { // Scope to prevent stack too deep\n                address networkRelayAddress;\n                bytes32 networkRelayKey = keccak256(abi.encodePacked(\"rewards.relay.address\", i));\n                networkRelayAddress = getAddress(networkRelayKey);\n                // Validate network is valid\n                require (networkRelayAddress != address(0), \"Snapshot contains rewards for invalid network\");\n                relay = RocketRewardsRelayInterface(networkRelayAddress);\n            }\n            // Transfer rewards\n            if (rewardsRPL > 0) {\n                // RPL rewards are withdrawn from the vault\n                rocketVault.withdrawToken(address(relay), rplContract, rewardsRPL);\n            }\n            if (rewardsETH > 0) {\n                // ETH rewards are withdrawn from the smoothing pool\n                rocketSmoothingPool.withdrawEther(address(relay), rewardsETH);\n            }\n            // Call into relay contract to handle distribution of rewards\n            relay.relayRewards(_submission.rewardIndex, _submission.merkleRoot, rewardsRPL, rewardsETH);\n        }\n    }\n}\n",
  "sourcePath": "/Users/dmccartney/src/rocket-pool/rocketpool/contracts/contract/rewards/RocketRewardsPool.sol",
  "compiler": {
    "name": "solc",
    "version": "0.7.6+commit.7338295f.Emscripten.clang"
  },
  "schemaVersion": "3.4.2",
  "updatedAt": "2022-09-22T03:32:02.915Z",
  "devdoc": {
    "kind": "dev",
    "methods": {
      "getClaimIntervalTime()": {
        "returns": {
          "_0": "uint256 Number of seconds in a claim interval"
        }
      },
      "getClaimIntervalTimeStart()": {
        "returns": {
          "_0": "uint256 Last set start timestamp for a claim interval"
        }
      },
      "getClaimIntervalsPassed()": {
        "returns": {
          "_0": "uint256 Time intervals since last update"
        }
      },
      "getClaimingContractPerc(string)": {
        "returns": {
          "_0": "uint256 Rewards percentage this contract can claim in this interval"
        }
      },
      "getClaimingContractsPerc(string[])": {
        "returns": {
          "_0": "uint256[] Array of percentages in the order of the supplied contract names"
        }
      },
      "getRPLBalance()": {
        "returns": {
          "_0": "uint256 Returns rpl balance of rocket rewards contract"
        }
      }
    },
    "version": 1
  },
  "userdoc": {
    "kind": "user",
    "methods": {
      "getClaimIntervalTime()": {
        "notice": "Get how many seconds in a claim interval"
      },
      "getClaimIntervalTimeStart()": {
        "notice": "Get the last set interval start time"
      },
      "getClaimIntervalsPassed()": {
        "notice": "Compute intervals since last claim period"
      },
      "getClaimingContractPerc(string)": {
        "notice": "Get the percentage this contract can claim in this interval"
      },
      "getClaimingContractsPerc(string[])": {
        "notice": "Get an array of percentages that the given contracts can claim in this interval"
      },
      "getRPLBalance()": {
        "notice": "Get how much RPL the Rewards Pool contract currently has assigned to it as a whole"
      }
    },
    "version": 1
  }
}