{
  "contractName": "RocketDAONodeTrusted",
  "abi": [
    {
      "inputs": [
        {
          "internalType": "contract RocketStorageInterface",
          "name": "_rocketStorageAddress",
          "type": "address"
        }
      ],
      "stateMutability": "nonpayable",
      "type": "constructor"
    },
    {
      "inputs": [],
      "name": "version",
      "outputs": [
        {
          "internalType": "uint8",
          "name": "",
          "type": "uint8"
        }
      ],
      "stateMutability": "view",
      "type": "function"
    },
    {
      "inputs": [],
      "name": "getBootstrapModeDisabled",
      "outputs": [
        {
          "internalType": "bool",
          "name": "",
          "type": "bool"
        }
      ],
      "stateMutability": "view",
      "type": "function"
    },
    {
      "inputs": [],
      "name": "getMemberQuorumVotesRequired",
      "outputs": [
        {
          "internalType": "uint256",
          "name": "",
          "type": "uint256"
        }
      ],
      "stateMutability": "view",
      "type": "function"
    },
    {
      "inputs": [
        {
          "internalType": "address",
          "name": "_nodeAddress",
          "type": "address"
        }
      ],
      "name": "getMemberIsValid",
      "outputs": [
        {
          "internalType": "bool",
          "name": "",
          "type": "bool"
        }
      ],
      "stateMutability": "view",
      "type": "function"
    },
    {
      "inputs": [
        {
          "internalType": "uint256",
          "name": "_index",
          "type": "uint256"
        }
      ],
      "name": "getMemberAt",
      "outputs": [
        {
          "internalType": "address",
          "name": "",
          "type": "address"
        }
      ],
      "stateMutability": "view",
      "type": "function"
    },
    {
      "inputs": [],
      "name": "getMemberCount",
      "outputs": [
        {
          "internalType": "uint256",
          "name": "",
          "type": "uint256"
        }
      ],
      "stateMutability": "view",
      "type": "function"
    },
    {
      "inputs": [],
      "name": "getMemberMinRequired",
      "outputs": [
        {
          "internalType": "uint256",
          "name": "",
          "type": "uint256"
        }
      ],
      "stateMutability": "pure",
      "type": "function"
    },
    {
      "inputs": [
        {
          "internalType": "address",
          "name": "_nodeAddress",
          "type": "address"
        }
      ],
      "name": "getMemberLastProposalTime",
      "outputs": [
        {
          "internalType": "uint256",
          "name": "",
          "type": "uint256"
        }
      ],
      "stateMutability": "view",
      "type": "function"
    },
    {
      "inputs": [
        {
          "internalType": "address",
          "name": "_nodeAddress",
          "type": "address"
        }
      ],
      "name": "getMemberID",
      "outputs": [
        {
          "internalType": "string",
          "name": "",
          "type": "string"
        }
      ],
      "stateMutability": "view",
      "type": "function"
    },
    {
      "inputs": [
        {
          "internalType": "address",
          "name": "_nodeAddress",
          "type": "address"
        }
      ],
      "name": "getMemberUrl",
      "outputs": [
        {
          "internalType": "string",
          "name": "",
          "type": "string"
        }
      ],
      "stateMutability": "view",
      "type": "function"
    },
    {
      "inputs": [
        {
          "internalType": "address",
          "name": "_nodeAddress",
          "type": "address"
        }
      ],
      "name": "getMemberJoinedTime",
      "outputs": [
        {
          "internalType": "uint256",
          "name": "",
          "type": "uint256"
        }
      ],
      "stateMutability": "view",
      "type": "function"
    },
    {
      "inputs": [
        {
          "internalType": "string",
          "name": "_proposalType",
          "type": "string"
        },
        {
          "internalType": "address",
          "name": "_nodeAddress",
          "type": "address"
        }
      ],
      "name": "getMemberProposalExecutedTime",
      "outputs": [
        {
          "internalType": "uint256",
          "name": "",
          "type": "uint256"
        }
      ],
      "stateMutability": "view",
      "type": "function"
    },
    {
      "inputs": [
        {
          "internalType": "address",
          "name": "_nodeAddress",
          "type": "address"
        }
      ],
      "name": "getMemberRPLBondAmount",
      "outputs": [
        {
          "internalType": "uint256",
          "name": "",
          "type": "uint256"
        }
      ],
      "stateMutability": "view",
      "type": "function"
    },
    {
      "inputs": [
        {
          "internalType": "address",
          "name": "_nodeAddress",
          "type": "address"
        }
      ],
      "name": "getMemberIsChallenged",
      "outputs": [
        {
          "internalType": "bool",
          "name": "",
          "type": "bool"
        }
      ],
      "stateMutability": "view",
      "type": "function"
    },
    {
      "inputs": [
        {
          "internalType": "address",
          "name": "_nodeAddress",
          "type": "address"
        }
      ],
      "name": "getMemberUnbondedValidatorCount",
      "outputs": [
        {
          "internalType": "uint256",
          "name": "",
          "type": "uint256"
        }
      ],
      "stateMutability": "view",
      "type": "function"
    },
    {
      "inputs": [
        {
          "internalType": "address",
          "name": "_nodeAddress",
          "type": "address"
        }
      ],
      "name": "incrementMemberUnbondedValidatorCount",
      "outputs": [],
      "stateMutability": "nonpayable",
      "type": "function"
    },
    {
      "inputs": [
        {
          "internalType": "address",
          "name": "_nodeAddress",
          "type": "address"
        }
      ],
      "name": "decrementMemberUnbondedValidatorCount",
      "outputs": [],
      "stateMutability": "nonpayable",
      "type": "function"
    },
    {
      "inputs": [
        {
          "internalType": "string",
          "name": "_id",
          "type": "string"
        },
        {
          "internalType": "string",
          "name": "_url",
          "type": "string"
        },
        {
          "internalType": "address",
          "name": "_nodeAddress",
          "type": "address"
        }
      ],
      "name": "bootstrapMember",
      "outputs": [],
      "stateMutability": "nonpayable",
      "type": "function"
    },
    {
      "inputs": [
        {
          "internalType": "string",
          "name": "_settingContractName",
          "type": "string"
        },
        {
          "internalType": "string",
          "name": "_settingPath",
          "type": "string"
        },
        {
          "internalType": "uint256",
          "name": "_value",
          "type": "uint256"
        }
      ],
      "name": "bootstrapSettingUint",
      "outputs": [],
      "stateMutability": "nonpayable",
      "type": "function"
    },
    {
      "inputs": [
        {
          "internalType": "string",
          "name": "_settingContractName",
          "type": "string"
        },
        {
          "internalType": "string",
          "name": "_settingPath",
          "type": "string"
        },
        {
          "internalType": "bool",
          "name": "_value",
          "type": "bool"
        }
      ],
      "name": "bootstrapSettingBool",
      "outputs": [],
      "stateMutability": "nonpayable",
      "type": "function"
    },
    {
      "inputs": [
        {
          "internalType": "string",
          "name": "_type",
          "type": "string"
        },
        {
          "internalType": "string",
          "name": "_name",
          "type": "string"
        },
        {
          "internalType": "string",
          "name": "_contractAbi",
          "type": "string"
        },
        {
          "internalType": "address",
          "name": "_contractAddress",
          "type": "address"
        }
      ],
      "name": "bootstrapUpgrade",
      "outputs": [],
      "stateMutability": "nonpayable",
      "type": "function"
    },
    {
      "inputs": [
        {
          "internalType": "bool",
          "name": "_confirmDisableBootstrapMode",
          "type": "bool"
        }
      ],
      "name": "bootstrapDisable",
      "outputs": [],
      "stateMutability": "nonpayable",
      "type": "function"
    },
    {
      "inputs": [
        {
          "internalType": "string",
          "name": "_id",
          "type": "string"
        },
        {
          "internalType": "string",
          "name": "_url",
          "type": "string"
        }
      ],
      "name": "memberJoinRequired",
      "outputs": [],
      "stateMutability": "nonpayable",
      "type": "function"
    }
  ],
  "bytecode": "0x608060405260008054610100600160a81b031916905534801561002157600080fd5b50604051613a77380380613a778339818101604052602081101561004457600080fd5b50516000805460ff196001600160a01b0390931661010002610100600160a81b0319909116179190911660011790556139f5806100826000396000f3fe608060405234801561001057600080fd5b506004361061018d5760003560e01c80637a1b2327116100e3578063b3b0db221161008c578063e150394411610066578063e150394414610b14578063e992c81714610b33578063f54746e414610b6c5761018d565b8063b3b0db22146108ae578063c1eb7b2a146109dd578063c3edad14146109e55761018d565b80638840fe0c116100bd5780638840fe0c146106c1578063997072f7146106e7578063b0ad9a1e146106ef5761018d565b80637a1b2327146105c45780637d89846e146105ea578063803f94e3146106105761018d565b806354d28878116101455780635dc33bdd1161011f5780635dc33bdd14610437578063636e3e411461047157806372043ec41461059e5761018d565b806354d28878146103cd57806354fd4d50146103f35780635987956e146104115761018d565b806343906fea1161017657806343906fea14610265578063487959041461026d57806351553095146103a75761018d565b806303c86bbd146101925780633e2d45d1146101ca575b600080fd5b6101b8600480360360208110156101a857600080fd5b50356001600160a01b0316610b74565b60408051918252519081900360200190f35b6101f0600480360360208110156101e057600080fd5b50356001600160a01b0316610c63565b6040805160208082528351818301528351919283929083019185019080838360005b8381101561022a578181015183820152602001610212565b50505050905090810190601f1680156102575780820380516001836020036101000a031916815260200191505b509250505060405180910390f35b6101b8610d4c565b6103a56004803603606081101561028357600080fd5b81019060208101813564010000000081111561029e57600080fd5b8201836020820111156102b057600080fd5b803590602001918460018302840111640100000000831117156102d257600080fd5b91908080601f016020809104026020016040519081016040528093929190818152602001838380828437600092019190915250929594936020810193503591505064010000000081111561032557600080fd5b82018360208201111561033757600080fd5b8035906020019184600183028401116401000000008311171561035957600080fd5b91908080601f016020809104026020016040519081016040528093929190818152602001838380828437600092019190915250929550505090356001600160a01b03169150610dee9050565b005b6101b8600480360360208110156103bd57600080fd5b50356001600160a01b0316611274565b6103a5600480360360208110156103e357600080fd5b50356001600160a01b031661135d565b6103fb6115ef565b6040805160ff9092168252519081900360200190f35b6101b86004803603602081101561042757600080fd5b50356001600160a01b03166115f8565b61045d6004803603602081101561044d57600080fd5b50356001600160a01b03166116e1565b604080519115158252519081900360200190f35b6103a56004803603604081101561048757600080fd5b8101906020810181356401000000008111156104a257600080fd5b8201836020820111156104b457600080fd5b803590602001918460018302840111640100000000831117156104d657600080fd5b91908080601f016020809104026020016040519081016040528093929190818152602001838380828437600092019190915250929594936020810193503591505064010000000081111561052957600080fd5b82018360208201111561053b57600080fd5b8035906020019184600183028401116401000000008311171561055d57600080fd5b91908080601f0160208091040260200160405190810160405280939291908181526020018383808284376000920191909152509295506117ca945050505050565b6103a5600480360360208110156105b457600080fd5b50356001600160a01b0316611be9565b61045d600480360360208110156105da57600080fd5b50356001600160a01b0316611ecb565b6101b86004803603602081101561060057600080fd5b50356001600160a01b0316611fc9565b6101b86004803603604081101561062657600080fd5b81019060208101813564010000000081111561064157600080fd5b82018360208201111561065357600080fd5b8035906020019184600183028401116401000000008311171561067557600080fd5b91908080601f016020809104026020016040519081016040528093929190818152602001838380828437600092019190915250929550505090356001600160a01b031691506120b29050565b6101f0600480360360208110156106d757600080fd5b50356001600160a01b031661220b565b6101b86122f4565b6103a56004803603608081101561070557600080fd5b81019060208101813564010000000081111561072057600080fd5b82018360208201111561073257600080fd5b8035906020019184600183028401116401000000008311171561075457600080fd5b91908080601f01602080910402602001604051908101604052809392919081815260200183838082843760009201919091525092959493602081019350359150506401000000008111156107a757600080fd5b8201836020820111156107b957600080fd5b803590602001918460018302840111640100000000831117156107db57600080fd5b91908080601f016020809104026020016040519081016040528093929190818152602001838380828437600092019190915250929594936020810193503591505064010000000081111561082e57600080fd5b82018360208201111561084057600080fd5b8035906020019184600183028401116401000000008311171561086257600080fd5b91908080601f016020809104026020016040519081016040528093929190818152602001838380828437600092019190915250929550505090356001600160a01b031691506124779050565b6103a5600480360360608110156108c457600080fd5b8101906020810181356401000000008111156108df57600080fd5b8201836020820111156108f157600080fd5b8035906020019184600183028401116401000000008311171561091357600080fd5b91908080601f016020809104026020016040519081016040528093929190818152602001838380828437600092019190915250929594936020810193503591505064010000000081111561096657600080fd5b82018360208201111561097857600080fd5b8035906020019184600183028401116401000000008311171561099a57600080fd5b91908080601f016020809104026020016040519081016040528093929190818152602001838380828437600092019190915250929550509135925061284e915050565b6101b8612bb5565b6103a5600480360360608110156109fb57600080fd5b810190602081018135640100000000811115610a1657600080fd5b820183602082011115610a2857600080fd5b80359060200191846001830284011164010000000083111715610a4a57600080fd5b91908080601f0160208091040260200160405190810160405280939291908181526020018383808284376000920191909152509295949360208101935035915050640100000000811115610a9d57600080fd5b820183602082011115610aaf57600080fd5b80359060200191846001830284011164010000000083111715610ad157600080fd5b91908080601f0160208091040260200160405190810160405280939291908181526020018383808284376000920191909152509295505050503515159050612bba565b6103a560048036036020811015610b2a57600080fd5b50351515612e73565b610b5060048036036020811015610b4957600080fd5b503561319b565b604080516001600160a01b039092168252519081900360200190f35b61045d613327565b6000610c5d6040518060400160405280601181526020017f64616f2e747275737465646e6f6465732e000000000000000000000000000000815250836040516020018083805190602001908083835b60208310610be25780518252601f199092019160209182019101610bc3565b6001836020036101000a038019825116818451168082178552505050505050905001807f6d656d6265722e626f6e642e72706c0000000000000000000000000000000000815250600f01826001600160a01b031660601b81526014019250505060405160208183030381529060405280519060200120613401565b92915050565b6060610c5d6040518060400160405280601181526020017f64616f2e747275737465646e6f6465732e000000000000000000000000000000815250836040516020018083805190602001908083835b60208310610cd15780518252601f199092019160209182019101610cb2565b6001836020036101000a038019825116818451168082178552505050505050905001807f6d656d6265722e69640000000000000000000000000000000000000000000000815250600901826001600160a01b031660601b8152601401925050506040516020818303038152906040528051906020012061348d565b600080610d70604051806060016040528060238152602001613915602391396135e9565b9050610de8816001600160a01b031663c26c12eb6040518163ffffffff1660e01b815260040160206040518083038186803b158015610dae57600080fd5b505afa158015610dc2573d6000803e3d6000fd5b505050506040513d6020811015610dd857600080fd5b5051610de26122f4565b906136a6565b91505090565b600060019054906101000a90046001600160a01b03166001600160a01b031663a75b87d26040518163ffffffff1660e01b815260040160206040518083038186803b158015610e3c57600080fd5b505afa158015610e50573d6000803e3d6000fd5b505050506040513d6020811015610e6657600080fd5b50516001600160a01b03163314610eae5760405162461bcd60e51b815260040180806020018281038252602381526020018061399d6023913960400191505060405180910390fd5b610eb6613327565b15610f08576040805162461bcd60e51b815260206004820152601a60248201527f426f6f747374726170206d6f6465206e6f7420656e6761676564000000000000604482015290519081900360640190fd5b80610f6c8160405160200180807f6e6f64652e657869737473000000000000000000000000000000000000000000815250600b01826001600160a01b031660601b8152601401915050604051602081830303815290604052805190602001206136ff565b610fbd576040805162461bcd60e51b815260206004820152600c60248201527f496e76616c6964206e6f64650000000000000000000000000000000000000000604482015290519081900360640190fd5b6040518060400160405280601481526020017f726f636b657444414f4e6f646554727573746564000000000000000000000000815250306110928260405160200180807f636f6e74726163742e616464726573730000000000000000000000000000000081525060100182805190602001908083835b602083106110525780518252601f199092019160209182019101611033565b6001836020036101000a03801982511681845116808217855250505050505090500191505060405160208183030381529060405280519060200120613759565b6001600160a01b0316816001600160a01b0316146110f7576040805162461bcd60e51b815260206004820152601c60248201527f496e76616c6964206f72206f7574646174656420636f6e747261637400000000604482015290519081900360640190fd5b6111356040518060400160405280601d81526020017f726f636b657444414f4e6f64655472757374656450726f706f73616c730000008152506135e9565b6001600160a01b0316638f14a3248787876040518463ffffffff1660e01b8152600401808060200180602001846001600160a01b03168152602001838103835286818151815260200191508051906020019080838360005b838110156111a557818101518382015260200161118d565b50505050905090810190601f1680156111d25780820380516001836020036101000a031916815260200191505b50838103825285518152855160209182019187019080838360005b838110156112055781810151838201526020016111ed565b50505050905090810190601f1680156112325780820380516001836020036101000a031916815260200191505b5095505050505050600060405180830381600087803b15801561125457600080fd5b505af1158015611268573d6000803e3d6000fd5b50505050505050505050565b6000610c5d6040518060400160405280601181526020017f64616f2e747275737465646e6f6465732e000000000000000000000000000000815250836040516020018083805190602001908083835b602083106112e25780518252601f1990920191602091820191016112c3565b6001836020036101000a038019825116818451168082178552505050505050905001807f6d656d6265722e70726f706f73616c2e6c61737474696d650000000000000000815250601801826001600160a01b031660601b81526014019250505060405160208183030381529060405280519060200120613401565b6040518060400160405280601481526020017f726f636b657444414f4e6f646554727573746564000000000000000000000000815250306113f18260405160200180807f636f6e74726163742e61646472657373000000000000000000000000000000008152506010018280519060200190808383602083106110525780518252601f199092019160209182019101611033565b6001600160a01b0316816001600160a01b031614611456576040805162461bcd60e51b815260206004820152601c60248201527f496e76616c6964206f72206f7574646174656420636f6e747261637400000000604482015290519081900360640190fd5b604080517f6d696e69706f6f6c2e657869737473000000000000000000000000000000000060208083019190915233606081901b602f84015283516023818503018152604390930190935281519101206114af906136ff565b611500576040805162461bcd60e51b815260206004820152601060248201527f496e76616c6964206d696e69706f6f6c00000000000000000000000000000000604482015290519081900360640190fd5b6115e96040518060400160405280601181526020017f64616f2e747275737465646e6f6465732e000000000000000000000000000000815250856040516020018083805190602001908083835b6020831061156c5780518252601f19909201916020918201910161154d565b6001836020036101000a038019825116818451168082178552505050505050905001807f6d656d6265722e76616c696461746f722e756e626f6e6465642e636f756e7400815250601f01826001600160a01b031660601b8152601401925050506040516020818303038152906040528051906020012060016137b3565b50505050565b60005460ff1681565b6000610c5d6040518060400160405280601181526020017f64616f2e747275737465646e6f6465732e000000000000000000000000000000815250836040516020018083805190602001908083835b602083106116665780518252601f199092019160209182019101611647565b6001836020036101000a038019825116818451168082178552505050505050905001807f6d656d6265722e6a6f696e65642e74696d650000000000000000000000000000815250601201826001600160a01b031660601b81526014019250505060405160208183030381529060405280519060200120613401565b6000610c5d6040518060400160405280601181526020017f64616f2e747275737465646e6f6465732e000000000000000000000000000000815250836040516020018083805190602001908083835b6020831061174f5780518252601f199092019160209182019101611730565b6001836020036101000a038019825116818451168082178552505050505050905001807f6d656d6265720000000000000000000000000000000000000000000000000000815250600601826001600160a01b031660601b815260140192505050604051602081830303815290604052805190602001206136ff565b60036117d46122f4565b10611826576040805162461bcd60e51b815260206004820152601b60248201527f4c6f77206d656d626572206d6f6465206e6f7420656e67616765640000000000604482015290519081900360640190fd5b604080517f6e6f64652e65786973747300000000000000000000000000000000000000000060208083019190915233606081901b602b8401528351601f818503018152603f909301909352815191012061187f906136ff565b6118d0576040805162461bcd60e51b815260206004820152600c60248201527f496e76616c6964206e6f64650000000000000000000000000000000000000000604482015290519081900360640190fd5b6040518060400160405280601481526020017f726f636b657444414f4e6f646554727573746564000000000000000000000000815250306119648260405160200180807f636f6e74726163742e61646472657373000000000000000000000000000000008152506010018280519060200190808383602083106110525780518252601f199092019160209182019101611033565b6001600160a01b0316816001600160a01b0316146119c9576040805162461bcd60e51b815260206004820152601c60248201527f496e76616c6964206f72206f7574646174656420636f6e747261637400000000604482015290519081900360640190fd5b611a076040518060400160405280601d81526020017f726f636b657444414f4e6f64655472757374656450726f706f73616c730000008152506135e9565b6001600160a01b0316638f14a3248686336040518463ffffffff1660e01b8152600401808060200180602001846001600160a01b03168152602001838103835286818151815260200191508051906020019080838360005b83811015611a77578181015183820152602001611a5f565b50505050905090810190601f168015611aa45780820380516001836020036101000a031916815260200191505b50838103825285518152855160209182019187019080838360005b83811015611ad7578181015183820152602001611abf565b50505050905090810190601f168015611b045780820380516001836020036101000a031916815260200191505b5095505050505050600060405180830381600087803b158015611b2657600080fd5b505af1158015611b3a573d6000803e3d6000fd5b50505050611b7c6040518060400160405280601b81526020017f726f636b657444414f4e6f646554727573746564416374696f6e7300000000008152506135e9565b6001600160a01b031663a8026242336040518263ffffffff1660e01b815260040180826001600160a01b03168152602001915050600060405180830381600087803b158015611bca57600080fd5b505af1158015611bde573d6000803e3d6000fd5b505050505050505050565b6040518060400160405280601481526020017f726f636b657444414f4e6f64655472757374656400000000000000000000000081525030611c7d8260405160200180807f636f6e74726163742e61646472657373000000000000000000000000000000008152506010018280519060200190808383602083106110525780518252601f199092019160209182019101611033565b6001600160a01b0316816001600160a01b031614611ce2576040805162461bcd60e51b815260206004820152601c60248201527f496e76616c6964206f72206f7574646174656420636f6e747261637400000000604482015290519081900360640190fd5b6040518060400160405280601581526020017f726f636b65744d696e69706f6f6c4d616e61676572000000000000000000000081525033611d768260405160200180807f636f6e74726163742e61646472657373000000000000000000000000000000008152506010018280519060200190808383602083106110525780518252601f199092019160209182019101611033565b6001600160a01b0316816001600160a01b031614611ddb576040805162461bcd60e51b815260206004820152601c60248201527f496e76616c6964206f72206f7574646174656420636f6e747261637400000000604482015290519081900360640190fd5b611ec46040518060400160405280601181526020017f64616f2e747275737465646e6f6465732e000000000000000000000000000000815250866040516020018083805190602001908083835b60208310611e475780518252601f199092019160209182019101611e28565b6001836020036101000a038019825116818451168082178552505050505050905001807f6d656d6265722e76616c696461746f722e756e626f6e6465642e636f756e7400815250601f01826001600160a01b031660601b81526014019250505060405160208183030381529060405280519060200120600161383b565b5050505050565b600080611fb56040518060400160405280601181526020017f64616f2e747275737465646e6f6465732e000000000000000000000000000000815250846040516020018083805190602001908083835b60208310611f3a5780518252601f199092019160209182019101611f1b565b6001836020036101000a038019825116818451168082178552505050505050905001807f6d656d6265722e6368616c6c656e6765642e74696d6500000000000000000000815250601601826001600160a01b031660601b81526014019250505060405160208183030381529060405280519060200120613401565b11611fc1576000610c5d565b506001919050565b6000610c5d6040518060400160405280601181526020017f64616f2e747275737465646e6f6465732e000000000000000000000000000000815250836040516020018083805190602001908083835b602083106120375780518252601f199092019160209182019101612018565b6001836020036101000a038019825116818451168082178552505050505050905001807f6d656d6265722e76616c696461746f722e756e626f6e6465642e636f756e7400815250601f01826001600160a01b031660601b81526014019250505060405160208183030381529060405280519060200120613401565b60006122046040518060400160405280601181526020017f64616f2e747275737465646e6f6465732e00000000000000000000000000000081525084846040516020018084805190602001908083835b602083106121215780518252601f199092019160209182019101612102565b51815160209384036101000a7fffffffffffffffffffffffffffffffffffffffffffffffffffffffffffffffff01801990921691161790527f6d656d6265722e65786563757465642e74696d65000000000000000000000000919093019081528551601490910192860191508083835b602083106121b05780518252601f199092019160209182019101612191565b6001836020036101000a038019825116818451168082178552505050505050905001826001600160a01b031660601b8152601401935050505060405160208183030381529060405280519060200120613401565b9392505050565b6060610c5d6040518060400160405280601181526020017f64616f2e747275737465646e6f6465732e000000000000000000000000000000815250836040516020018083805190602001908083835b602083106122795780518252601f19909201916020918201910161225a565b6001836020036101000a038019825116818451168082178552505050505050905001807f6d656d6265722e75726c00000000000000000000000000000000000000000000815250600a01826001600160a01b031660601b8152601401925050506040516020818303038152906040528051906020012061348d565b6000806123356040518060400160405280601181526020017f6164647265737353657453746f726167650000000000000000000000000000008152506135e9565b9050806001600160a01b031663c9d6fee96040518060400160405280601181526020017f64616f2e747275737465646e6f6465732e0000000000000000000000000000008152506040516020018082805190602001908083835b602083106123ae5780518252601f19909201916020918201910161238f565b6001836020036101000a038019825116818451168082178552505050505050905001807f6d656d6265722e696e6465780000000000000000000000000000000000000000815250600c01915050604051602081830303815290604052805190602001206040518263ffffffff1660e01b81526004018082815260200191505060206040518083038186803b15801561244557600080fd5b505afa158015612459573d6000803e3d6000fd5b505050506040513d602081101561246f57600080fd5b505191505090565b600060019054906101000a90046001600160a01b03166001600160a01b031663a75b87d26040518163ffffffff1660e01b815260040160206040518083038186803b1580156124c557600080fd5b505afa1580156124d9573d6000803e3d6000fd5b505050506040513d60208110156124ef57600080fd5b50516001600160a01b031633146125375760405162461bcd60e51b815260040180806020018281038252602381526020018061399d6023913960400191505060405180910390fd5b61253f613327565b15612591576040805162461bcd60e51b815260206004820152601a60248201527f426f6f747374726170206d6f6465206e6f7420656e6761676564000000000000604482015290519081900360640190fd5b6040518060400160405280601481526020017f726f636b657444414f4e6f646554727573746564000000000000000000000000815250306126258260405160200180807f636f6e74726163742e61646472657373000000000000000000000000000000008152506010018280519060200190808383602083106110525780518252601f199092019160209182019101611033565b6001600160a01b0316816001600160a01b03161461268a576040805162461bcd60e51b815260206004820152601c60248201527f496e76616c6964206f72206f7574646174656420636f6e747261637400000000604482015290519081900360640190fd5b6126c86040518060400160405280601d81526020017f726f636b657444414f4e6f64655472757374656450726f706f73616c730000008152506135e9565b6001600160a01b031663dfc970ef878787876040518563ffffffff1660e01b815260040180806020018060200180602001856001600160a01b03168152602001848103845288818151815260200191508051906020019080838360005b8381101561273d578181015183820152602001612725565b50505050905090810190601f16801561276a5780820380516001836020036101000a031916815260200191505b50848103835287518152875160209182019189019080838360005b8381101561279d578181015183820152602001612785565b50505050905090810190601f1680156127ca5780820380516001836020036101000a031916815260200191505b50848103825286518152865160209182019188019080838360005b838110156127fd5781810151838201526020016127e5565b50505050905090810190601f16801561282a5780820380516001836020036101000a031916815260200191505b50975050505050505050600060405180830381600087803b15801561125457600080fd5b600060019054906101000a90046001600160a01b03166001600160a01b031663a75b87d26040518163ffffffff1660e01b815260040160206040518083038186803b15801561289c57600080fd5b505afa1580156128b0573d6000803e3d6000fd5b505050506040513d60208110156128c657600080fd5b50516001600160a01b0316331461290e5760405162461bcd60e51b815260040180806020018281038252602381526020018061399d6023913960400191505060405180910390fd5b612916613327565b15612968576040805162461bcd60e51b815260206004820152601a60248201527f426f6f747374726170206d6f6465206e6f7420656e6761676564000000000000604482015290519081900360640190fd5b6040518060400160405280601481526020017f726f636b657444414f4e6f646554727573746564000000000000000000000000815250306129fc8260405160200180807f636f6e74726163742e61646472657373000000000000000000000000000000008152506010018280519060200190808383602083106110525780518252601f199092019160209182019101611033565b6001600160a01b0316816001600160a01b031614612a61576040805162461bcd60e51b815260206004820152601c60248201527f496e76616c6964206f72206f7574646174656420636f6e747261637400000000604482015290519081900360640190fd5b612a9f6040518060400160405280601d81526020017f726f636b657444414f4e6f64655472757374656450726f706f73616c730000008152506135e9565b6001600160a01b031663ed1cd9f78686866040518463ffffffff1660e01b8152600401808060200180602001848152602001838103835286818151815260200191508051906020019080838360005b83811015612b06578181015183820152602001612aee565b50505050905090810190601f168015612b335780820380516001836020036101000a031916815260200191505b50838103825285518152855160209182019187019080838360005b83811015612b66578181015183820152602001612b4e565b50505050905090810190601f168015612b935780820380516001836020036101000a031916815260200191505b5095505050505050600060405180830381600087803b158015611bca57600080fd5b600390565b600060019054906101000a90046001600160a01b03166001600160a01b031663a75b87d26040518163ffffffff1660e01b815260040160206040518083038186803b158015612c0857600080fd5b505afa158015612c1c573d6000803e3d6000fd5b505050506040513d6020811015612c3257600080fd5b50516001600160a01b03163314612c7a5760405162461bcd60e51b815260040180806020018281038252602381526020018061399d6023913960400191505060405180910390fd5b612c82613327565b15612cd4576040805162461bcd60e51b815260206004820152601a60248201527f426f6f747374726170206d6f6465206e6f7420656e6761676564000000000000604482015290519081900360640190fd5b6040518060400160405280601481526020017f726f636b657444414f4e6f64655472757374656400000000000000000000000081525030612d688260405160200180807f636f6e74726163742e61646472657373000000000000000000000000000000008152506010018280519060200190808383602083106110525780518252601f199092019160209182019101611033565b6001600160a01b0316816001600160a01b031614612dcd576040805162461bcd60e51b815260206004820152601c60248201527f496e76616c6964206f72206f7574646174656420636f6e747261637400000000604482015290519081900360640190fd5b612e0b6040518060400160405280601d81526020017f726f636b657444414f4e6f64655472757374656450726f706f73616c730000008152506135e9565b6001600160a01b031663fe993dc98686866040518463ffffffff1660e01b815260040180806020018060200184151581526020018381038352868181518152602001915080519060200190808383600083811015612b06578181015183820152602001612aee565b600060019054906101000a90046001600160a01b03166001600160a01b031663a75b87d26040518163ffffffff1660e01b815260040160206040518083038186803b158015612ec157600080fd5b505afa158015612ed5573d6000803e3d6000fd5b505050506040513d6020811015612eeb57600080fd5b50516001600160a01b03163314612f335760405162461bcd60e51b815260040180806020018281038252602381526020018061399d6023913960400191505060405180910390fd5b612f3b613327565b15612f8d576040805162461bcd60e51b815260206004820152601a60248201527f426f6f747374726170206d6f6465206e6f7420656e6761676564000000000000604482015290519081900360640190fd5b6040518060400160405280601481526020017f726f636b657444414f4e6f646554727573746564000000000000000000000000815250306130218260405160200180807f636f6e74726163742e61646472657373000000000000000000000000000000008152506010018280519060200190808383602083106110525780518252601f199092019160209182019101611033565b6001600160a01b0316816001600160a01b031614613086576040805162461bcd60e51b815260206004820152601c60248201527f496e76616c6964206f72206f7574646174656420636f6e747261637400000000604482015290519081900360640190fd5b6001831515146130c75760405162461bcd60e51b81526004018080602001828103825260448152602001806139596044913960600191505060405180910390fd5b60408051808201825260118082527f64616f2e747275737465646e6f6465732e000000000000000000000000000000602080840191825293516131969401918291908083835b6020831061312c5780518252601f19909201916020918201910161310d565b6001836020036101000a038019825116818451168082178552505050505050905001807f626f6f7473747261706d6f64652e64697361626c6564000000000000000000008152506016019150506040516020818303038152906040528051906020012060016138a7565b505050565b6000806131dc6040518060400160405280601181526020017f6164647265737353657453746f726167650000000000000000000000000000008152506135e9565b9050806001600160a01b031663f3358a3a6040518060400160405280601181526020017f64616f2e747275737465646e6f6465732e0000000000000000000000000000008152506040516020018082805190602001908083835b602083106132555780518252601f199092019160209182019101613236565b6001836020036101000a038019825116818451168082178552505050505050905001807f6d656d6265722e696e6465780000000000000000000000000000000000000000815250600c0191505060405160208183030381529060405280519060200120856040518363ffffffff1660e01b8152600401808381526020018281526020019250505060206040518083038186803b1580156132f457600080fd5b505afa158015613308573d6000803e3d6000fd5b505050506040513d602081101561331e57600080fd5b50519392505050565b60006133fc6040518060400160405280601181526020017f64616f2e747275737465646e6f6465732e0000000000000000000000000000008152506040516020018082805190602001908083835b602083106133945780518252601f199092019160209182019101613375565b6001836020036101000a038019825116818451168082178552505050505050905001807f626f6f7473747261706d6f64652e64697361626c656400000000000000000000815250601601915050604051602081830303815290604052805190602001206136ff565b905090565b60008060019054906101000a90046001600160a01b03166001600160a01b031663bd02d0f5836040518263ffffffff1660e01b81526004018082815260200191505060206040518083038186803b15801561345b57600080fd5b505afa15801561346f573d6000803e3d6000fd5b505050506040513d602081101561348557600080fd5b505192915050565b60008054604080517f986e791a0000000000000000000000000000000000000000000000000000000081526004810185905290516060936101009093046001600160a01b03169263986e791a9260248082019391829003018186803b1580156134f557600080fd5b505afa158015613509573d6000803e3d6000fd5b505050506040513d6000823e601f3d908101601f19168201604052602081101561353257600080fd5b810190808051604051939291908464010000000082111561355257600080fd5b90830190602082018581111561356757600080fd5b825164010000000081118282018810171561358157600080fd5b82525081516020918201929091019080838360005b838110156135ae578181015183820152602001613596565b50505050905090810190601f1680156135db5780820380516001836020036101000a031916815260200191505b506040525050509050919050565b6000806136498360405160200180807f636f6e74726163742e61646472657373000000000000000000000000000000008152506010018280519060200190808383602083106110525780518252601f199092019160209182019101611033565b90506001600160a01b038116610c5d576040805162461bcd60e51b815260206004820152601260248201527f436f6e7472616374206e6f7420666f756e640000000000000000000000000000604482015290519081900360640190fd5b6000826136b557506000610c5d565b828202828482816136c257fe5b04146122045760405162461bcd60e51b81526004018080602001828103825260218152602001806139386021913960400191505060405180910390fd5b60008060019054906101000a90046001600160a01b03166001600160a01b0316637ae1cfca836040518263ffffffff1660e01b81526004018082815260200191505060206040518083038186803b15801561345b57600080fd5b60008060019054906101000a90046001600160a01b03166001600160a01b03166321f8a721836040518263ffffffff1660e01b81526004018082815260200191505060206040518083038186803b15801561345b57600080fd5b60008054604080517febb9d8c9000000000000000000000000000000000000000000000000000000008152600481018690526024810185905290516101009092046001600160a01b03169263ebb9d8c99260448084019382900301818387803b15801561381f57600080fd5b505af1158015613833573d6000803e3d6000fd5b505050505050565b60008054604080517fadb353dc000000000000000000000000000000000000000000000000000000008152600481018690526024810185905290516101009092046001600160a01b03169263adb353dc9260448084019382900301818387803b15801561381f57600080fd5b60008054604080517fabfdcced00000000000000000000000000000000000000000000000000000000815260048101869052841515602482015290516101009092046001600160a01b03169263abfdcced9260448084019382900301818387803b15801561381f57600080fdfe726f636b657444414f4e6f64655472757374656453657474696e67734d656d62657273536166654d6174683a206d756c7469706c69636174696f6e206f766572666c6f77596f75206d75737420636f6e6669726d2064697361626c696e6720626f6f747374726170206d6f64652c2069742063616e206f6e6c7920626520646f6e65206f6e6365214163636f756e74206973206e6f7420612074656d706f7261727920677561726469616ea26469706673582212209678513da776d4bebf33638200e2734b11cb55a03431ff3ad3470647242fd09164736f6c63430007060033",
  "immutableReferences": {},
  "source": "pragma solidity 0.7.6;\n\n// SPDX-License-Identifier: GPL-3.0-only\n\nimport \"../../RocketBase.sol\";\nimport \"../../../interface/RocketVaultInterface.sol\";\nimport \"../../../interface/dao/node/RocketDAONodeTrustedInterface.sol\";\nimport \"../../../interface/dao/node/RocketDAONodeTrustedProposalsInterface.sol\";\nimport \"../../../interface/dao/node/RocketDAONodeTrustedActionsInterface.sol\";\nimport \"../../../interface/dao/node/settings/RocketDAONodeTrustedSettingsMembersInterface.sol\";\nimport \"../../../interface/dao/RocketDAOProposalInterface.sol\";\nimport \"../../../interface/util/AddressSetStorageInterface.sol\";\n\nimport \"@openzeppelin/contracts/math/SafeMath.sol\";\n\n\n// The Trusted Node DAO \ncontract RocketDAONodeTrusted is RocketBase, RocketDAONodeTrustedInterface {\n\n    using SafeMath for uint;\n\n    // The namespace for any data stored in the trusted node DAO (do not change)\n    string constant daoNameSpace = \"dao.trustednodes.\";\n\n    // Min amount of trusted node members required in the DAO\n    uint256 constant daoMemberMinCount = 3;\n\n\n    // Only allow bootstrapping when enabled\n    modifier onlyBootstrapMode() {\n        require(getBootstrapModeDisabled() == false, \"Bootstrap mode not engaged\");\n        _;\n    }\n\n    // Only when the DAO needs new members due to being below the required min\n    modifier onlyLowMemberMode() {\n        require(getMemberCount() < daoMemberMinCount, \"Low member mode not engaged\");\n        _;\n    }\n    \n\n    // Construct\n    constructor(RocketStorageInterface _rocketStorageAddress) RocketBase(_rocketStorageAddress) {\n        // Version\n        version = 1;\n    }\n\n\n\n    /**** DAO Properties **************/\n\n    // Returns true if bootstrap mode is disabled\n    function getBootstrapModeDisabled() override public view returns (bool) { \n        return getBool(keccak256(abi.encodePacked(daoNameSpace, \"bootstrapmode.disabled\"))); \n    }\n    \n\n    /*** Proposals ****************/\n\n    \n    // Return the amount of member votes need for a proposal to pass\n    function getMemberQuorumVotesRequired() override external view returns (uint256) {\n        // Load contracts\n        RocketDAONodeTrustedSettingsMembersInterface rocketDAONodeTrustedSettingsMembers = RocketDAONodeTrustedSettingsMembersInterface(getContractAddress(\"rocketDAONodeTrustedSettingsMembers\"));\n        // Calculate and return votes required\n        return getMemberCount().mul(rocketDAONodeTrustedSettingsMembers.getQuorum());\n    }\n\n\n    /*** Members ******************/\n\n    // Return true if the node addressed passed is a member of the trusted node DAO\n    function getMemberIsValid(address _nodeAddress) override external view returns (bool) {\n        return getBool(keccak256(abi.encodePacked(daoNameSpace, \"member\", _nodeAddress))); \n    }\n    \n    // Get a trusted node member address by index\n    function getMemberAt(uint256 _index) override external view returns (address) {\n        AddressSetStorageInterface addressSetStorage = AddressSetStorageInterface(getContractAddress(\"addressSetStorage\"));\n        return addressSetStorage.getItem(keccak256(abi.encodePacked(daoNameSpace, \"member.index\")), _index);\n    }\n\n    // Total number of members in the current trusted node DAO\n    function getMemberCount() override public view returns (uint256) {\n        AddressSetStorageInterface addressSetStorage = AddressSetStorageInterface(getContractAddress(\"addressSetStorage\"));\n        return addressSetStorage.getCount(keccak256(abi.encodePacked(daoNameSpace, \"member.index\")));\n    }\n\n    // Min required member count for the DAO \n    function getMemberMinRequired() override external pure returns (uint256) {\n        return daoMemberMinCount;\n    }\n\n    // Get the last time this user made a proposal\n    function getMemberLastProposalTime(address _nodeAddress) override external view returns (uint256) {\n        return getUint(keccak256(abi.encodePacked(daoNameSpace, \"member.proposal.lasttime\", _nodeAddress)));\n    }\n\n    // Get the ID of a trusted node member\n    function getMemberID(address _nodeAddress) override external view returns (string memory) {\n        return getString(keccak256(abi.encodePacked(daoNameSpace, \"member.id\", _nodeAddress))); \n    }\n\n    // Get the URL of a trusted node member\n    function getMemberUrl(address _nodeAddress) override external view returns (string memory) {\n        return getString(keccak256(abi.encodePacked(daoNameSpace, \"member.url\", _nodeAddress))); \n    }\n\n    // Get the block the member joined at\n    function getMemberJoinedTime(address _nodeAddress) override external view returns (uint256) {\n        return getUint(keccak256(abi.encodePacked(daoNameSpace, \"member.joined.time\", _nodeAddress)));\n    } \n\n    // Get data that was recorded about a proposal that was executed\n    function getMemberProposalExecutedTime(string memory _proposalType, address _nodeAddress) override external view returns (uint256) {\n        return getUint(keccak256(abi.encodePacked(daoNameSpace, \"member.executed.time\", _proposalType, _nodeAddress)));\n    }\n\n    // Get the RPL bond amount the user deposited to join\n    function getMemberRPLBondAmount(address _nodeAddress) override external view returns (uint256) {\n        return getUint(keccak256(abi.encodePacked(daoNameSpace, \"member.bond.rpl\", _nodeAddress))); \n    }\n\n    // Is this member currently being 'challenged' to see if their node is responding\n    function getMemberIsChallenged(address _nodeAddress) override external view returns (bool) {\n        // Has this member been challenged recently and still within the challenge window to respond? If there is a challenge block recorded against them, they are actively being challenged.\n        return getUint(keccak256(abi.encodePacked(daoNameSpace, \"member.challenged.time\", _nodeAddress))) > 0 ? true : false;\n    }\n\n    // How many unbonded validators this member has\n    function getMemberUnbondedValidatorCount(address _nodeAddress) override external view returns (uint256) {\n        return getUint(keccak256(abi.encodePacked(daoNameSpace, \"member.validator.unbonded.count\", _nodeAddress)));\n    }\n\n    // Increment/decrement a member's unbonded validator count\n    // Only accepts calls from the RocketMinipoolManager contract\n    function incrementMemberUnbondedValidatorCount(address _nodeAddress) override external onlyLatestContract(\"rocketDAONodeTrusted\", address(this)) onlyLatestContract(\"rocketMinipoolManager\", msg.sender) {\n        addUint(keccak256(abi.encodePacked(daoNameSpace, \"member.validator.unbonded.count\", _nodeAddress)), 1);\n    }\n    function decrementMemberUnbondedValidatorCount(address _nodeAddress) override external onlyLatestContract(\"rocketDAONodeTrusted\", address(this)) onlyRegisteredMinipool(msg.sender) {\n        subUint(keccak256(abi.encodePacked(daoNameSpace, \"member.validator.unbonded.count\", _nodeAddress)), 1);\n    }\n\n\n    /**** Bootstrapping ***************/\n\n    \n    // Bootstrap mode - In bootstrap mode, guardian can add members at will\n    function bootstrapMember(string memory _id, string memory _url, address _nodeAddress) override external onlyGuardian onlyBootstrapMode onlyRegisteredNode(_nodeAddress) onlyLatestContract(\"rocketDAONodeTrusted\", address(this)) {\n        // Ok good to go, lets add them\n        RocketDAONodeTrustedProposalsInterface(getContractAddress(\"rocketDAONodeTrustedProposals\")).proposalInvite(_id, _url, _nodeAddress);\n    }\n\n\n    // Bootstrap mode - Uint Setting\n    function bootstrapSettingUint(string memory _settingContractName, string memory _settingPath, uint256 _value) override external onlyGuardian onlyBootstrapMode onlyLatestContract(\"rocketDAONodeTrusted\", address(this)) {\n        // Ok good to go, lets update the settings \n        RocketDAONodeTrustedProposalsInterface(getContractAddress(\"rocketDAONodeTrustedProposals\")).proposalSettingUint(_settingContractName, _settingPath, _value);\n    }\n\n    // Bootstrap mode - Bool Setting\n    function bootstrapSettingBool(string memory _settingContractName, string memory _settingPath, bool _value) override external onlyGuardian onlyBootstrapMode onlyLatestContract(\"rocketDAONodeTrusted\", address(this)) {\n        // Ok good to go, lets update the settings \n        RocketDAONodeTrustedProposalsInterface(getContractAddress(\"rocketDAONodeTrustedProposals\")).proposalSettingBool(_settingContractName, _settingPath, _value);\n    }\n\n\n    // Bootstrap mode - Upgrade contracts or their ABI\n    function bootstrapUpgrade(string memory _type, string memory _name, string memory _contractAbi, address _contractAddress) override external onlyGuardian onlyBootstrapMode onlyLatestContract(\"rocketDAONodeTrusted\", address(this)) {\n        // Ok good to go, lets update the settings \n        RocketDAONodeTrustedProposalsInterface(getContractAddress(\"rocketDAONodeTrustedProposals\")).proposalUpgrade(_type, _name, _contractAbi, _contractAddress);\n    }\n\n    // Bootstrap mode - Disable RP Access (only RP can call this to hand over full control to the DAO)\n    function bootstrapDisable(bool _confirmDisableBootstrapMode) override external onlyGuardian onlyBootstrapMode onlyLatestContract(\"rocketDAONodeTrusted\", address(this)) {\n        require(_confirmDisableBootstrapMode == true, \"You must confirm disabling bootstrap mode, it can only be done once!\");\n        setBool(keccak256(abi.encodePacked(daoNameSpace, \"bootstrapmode.disabled\")), true); \n    }\n\n \n    /**** Recovery ***************/\n        \n    // In an explicable black swan scenario where the DAO loses more than the min membership required (3), this method can be used by a regular node operator to join the DAO\n    // Must have their ID, URL, current RPL bond amount available and must be called by their current registered node account\n    function memberJoinRequired(string memory _id, string memory _url) override external onlyLowMemberMode onlyRegisteredNode(msg.sender) onlyLatestContract(\"rocketDAONodeTrusted\", address(this)) {\n        // Ok good to go, lets update the settings \n        RocketDAONodeTrustedProposalsInterface(getContractAddress(\"rocketDAONodeTrustedProposals\")).proposalInvite(_id, _url, msg.sender);\n        // Get the to automatically join as a member (by a regular proposal, they would have to manually accept, but this is no ordinary situation)\n        RocketDAONodeTrustedActionsInterface(getContractAddress(\"rocketDAONodeTrustedActions\")).actionJoinRequired(msg.sender);\n    }\n\n}\n",
  "sourcePath": "/Users/dmccartney/src/rocketpool/contracts/contract/dao/node/RocketDAONodeTrusted.sol",
  "compiler": {
    "name": "solc",
    "version": "0.7.6+commit.7338295f.Emscripten.clang"
  },
  "schemaVersion": "3.4.2",
  "updatedAt": "2023-03-16T08:34:04.487Z",
  "devdoc": {
    "kind": "dev",
    "methods": {},
    "version": 1
  },
  "userdoc": {
    "kind": "user",
    "methods": {},
    "version": 1
  }
}