{
  "contractName": "RocketMerkleDistributorMainnet",
  "abi": [
    {
      "inputs": [
        {
          "internalType": "contract RocketStorageInterface",
          "name": "_rocketStorageAddress",
          "type": "address"
        }
      ],
      "stateMutability": "nonpayable",
      "type": "constructor"
    },
    {
      "anonymous": false,
      "inputs": [
        {
          "indexed": true,
          "internalType": "address",
          "name": "claimer",
          "type": "address"
        },
        {
          "indexed": false,
          "internalType": "uint256[]",
          "name": "rewardIndex",
          "type": "uint256[]"
        },
        {
          "indexed": false,
          "internalType": "uint256[]",
          "name": "amountRPL",
          "type": "uint256[]"
        },
        {
          "indexed": false,
          "internalType": "uint256[]",
          "name": "amountETH",
          "type": "uint256[]"
        }
      ],
      "name": "RewardsClaimed",
      "type": "event"
    },
    {
      "inputs": [],
      "name": "version",
      "outputs": [
        {
          "internalType": "uint8",
          "name": "",
          "type": "uint8"
        }
      ],
      "stateMutability": "view",
      "type": "function"
    },
    {
      "stateMutability": "payable",
      "type": "receive"
    },
    {
      "inputs": [
        {
          "internalType": "uint256",
          "name": "_rewardIndex",
          "type": "uint256"
        },
        {
          "internalType": "bytes32",
          "name": "_root",
          "type": "bytes32"
        },
        {
          "internalType": "uint256",
          "name": "_rewardsRPL",
          "type": "uint256"
        },
        {
          "internalType": "uint256",
          "name": "_rewardsETH",
          "type": "uint256"
        }
      ],
      "name": "relayRewards",
      "outputs": [],
      "stateMutability": "nonpayable",
      "type": "function"
    },
    {
      "inputs": [
        {
          "internalType": "address",
          "name": "_nodeAddress",
          "type": "address"
        },
        {
          "internalType": "uint256[]",
          "name": "_rewardIndex",
          "type": "uint256[]"
        },
        {
          "internalType": "uint256[]",
          "name": "_amountRPL",
          "type": "uint256[]"
        },
        {
          "internalType": "uint256[]",
          "name": "_amountETH",
          "type": "uint256[]"
        },
        {
          "internalType": "bytes32[][]",
          "name": "_merkleProof",
          "type": "bytes32[][]"
        }
      ],
      "name": "claim",
      "outputs": [],
      "stateMutability": "nonpayable",
      "type": "function"
    },
    {
      "inputs": [
        {
          "internalType": "address",
          "name": "_nodeAddress",
          "type": "address"
        },
        {
          "internalType": "uint256[]",
          "name": "_rewardIndex",
          "type": "uint256[]"
        },
        {
          "internalType": "uint256[]",
          "name": "_amountRPL",
          "type": "uint256[]"
        },
        {
          "internalType": "uint256[]",
          "name": "_amountETH",
          "type": "uint256[]"
        },
        {
          "internalType": "bytes32[][]",
          "name": "_merkleProof",
          "type": "bytes32[][]"
        },
        {
          "internalType": "uint256",
          "name": "_stakeAmount",
          "type": "uint256"
        }
      ],
      "name": "claimAndStake",
      "outputs": [],
      "stateMutability": "nonpayable",
      "type": "function"
    },
    {
      "inputs": [
        {
          "internalType": "uint256",
          "name": "_rewardIndex",
          "type": "uint256"
        },
        {
          "internalType": "address",
          "name": "_claimer",
          "type": "address"
        }
      ],
      "name": "isClaimed",
      "outputs": [
        {
          "internalType": "bool",
          "name": "",
          "type": "bool"
        }
      ],
      "stateMutability": "view",
      "type": "function"
    },
    {
      "inputs": [],
      "name": "receiveVaultWithdrawalETH",
      "outputs": [],
      "stateMutability": "payable",
      "type": "function"
    }
  ],
  "bytecode": "0x60c060405260008054610100600160a81b03191690553480156200002257600080fd5b5060405162001f3838038062001f38833981016040819052620000459162000175565b600080546001610100600160a81b03199091166101006001600160a01b038516021760ff19161790556040516200007f9060200162000209565b60408051601f19818403018152908290528051602091820120608052620000a79101620001d6565b60408051601f1981840301815290829052805160209182012060a052620000fa91620000d79160009101620001a5565b60405160208183030381529060405280519060200120306200010160201b60201c565b5062000239565b600080546040805163ca446dd960e01b8152600481018690526001600160a01b03858116602483015291516101009093049091169263ca446dd99260448084019382900301818387803b1580156200015857600080fd5b505af11580156200016d573d6000803e3d6000fd5b505050505050565b60006020828403121562000187578081fd5b81516001600160a01b03811681146200019e578182fd5b9392505050565b7f726577617264732e72656c61792e6164647265737300000000000000000000008152601581019190915260350190565b6f636f6e74726163742e6164647265737360801b81526d1c9bd8dad95d151bdad95b94941360921b6010820152601e0190565b6f636f6e74726163742e6164647265737360801b81526a1c9bd8dad95d15985d5b1d60aa1b6010820152601b0190565b60805160a051611cd162000267600039806101ea5280610bd15250806101bd5280610b365250611cd16000f3fe6080604052600436106100695760003560e01c8063d2ef079511610043578063d2ef0795146100ca578063dacfffa8146100f7578063e44ba18f1461011757610070565b806354fd4d50146100755780635e38c572146100a0578063c095415d146100c257610070565b3661007057005b600080fd5b34801561008157600080fd5b5061008a610137565b6040516100979190611c03565b60405180910390f35b3480156100ac57600080fd5b506100c06100bb366004611616565b610140565b005b6100c061015e565b3480156100d657600080fd5b506100ea6100e53660046117e6565b610160565b6040516100979190611a25565b34801561010357600080fd5b506100c06101123660046116ea565b6101b6565b34801561012357600080fd5b506100c0610132366004611815565b61080c565b60005460ff1681565b61015389898989898989898960006101b6565b505050505050505050565b565b60405160009061010084049060ff85169083906101a2906101879087908690602001611906565b60405160208183030381529060405280519060200120610d33565b600190921b91821690911495945050505050565b60006101e17f0000000000000000000000000000000000000000000000000000000000000000610ddb565b9050600061020e7f0000000000000000000000000000000000000000000000000000000000000000610ddb565b90506102218b8b8e8c8c8c8c8c8c610e4f565b60008060019054906101000a900473ffffffffffffffffffffffffffffffffffffffff1673ffffffffffffffffffffffffffffffffffffffff16635b49ff628e6040518263ffffffff1660e01b815260040161027d9190611964565b60206040518083038186803b15801561029557600080fd5b505afa1580156102a9573d6000803e3d6000fd5b505050506040513d601f19601f820116820180604052508101906102cd91906115fa565b90503373ffffffffffffffffffffffffffffffffffffffff8e16148061030857503373ffffffffffffffffffffffffffffffffffffffff8216145b610347576040517f08c379a000000000000000000000000000000000000000000000000000000000815260040161033e90611a30565b60405180910390fd5b60008060005b8d8110156103ab5761037a8d8d8381811061036457fe5b90506020020135846110c890919063ffffffff16565b92506103a18b8b8381811061038b57fe5b90506020020135836110c890919063ffffffff16565b915060010161034d565b50818611156103e6576040517f08c379a000000000000000000000000000000000000000000000000000000000815260040161033e90611b8c565b60006103f28388611143565b90508015610483576040517f01e3366700000000000000000000000000000000000000000000000000000000815273ffffffffffffffffffffffffffffffffffffffff8716906301e336679061045090879089908690600401611985565b600060405180830381600087803b15801561046a57600080fd5b505af115801561047e573d6000803e3d6000fd5b505050505b81156105b2576040517f3bed33ce00000000000000000000000000000000000000000000000000000000815273ffffffffffffffffffffffffffffffffffffffff871690633bed33ce906104db908590600401611bfa565b600060405180830381600087803b1580156104f557600080fd5b505af1158015610509573d6000803e3d6000fd5b5050505060008473ffffffffffffffffffffffffffffffffffffffff168360405161053390611961565b60006040518083038185875af1925050503d8060008114610570576040519150601f19603f3d011682016040523d82523d6000602084013e610575565b606091505b50509050806105b0576040517f08c379a000000000000000000000000000000000000000000000000000000000815260040161033e90611b1e565b505b5050505060008311156107a657600081905060006106046040518060400160405280601181526020017f726f636b65744e6f64655374616b696e670000000000000000000000000000008152506111ba565b6040517f01e3366700000000000000000000000000000000000000000000000000000000815290915073ffffffffffffffffffffffffffffffffffffffff8516906301e336679061065d90309087908a90600401611985565b600060405180830381600087803b15801561067757600080fd5b505af115801561068b573d6000803e3d6000fd5b50506040517f095ea7b300000000000000000000000000000000000000000000000000000000815273ffffffffffffffffffffffffffffffffffffffff8516925063095ea7b391506106e390849089906004016119b6565b602060405180830381600087803b1580156106fd57600080fd5b505af1158015610711573d6000803e3d6000fd5b505050506040513d601f19601f8201168201806040525081019061073591906117c6565b508073ffffffffffffffffffffffffffffffffffffffff1663cb1c83218f876040518363ffffffff1660e01b81526004016107719291906119b6565b600060405180830381600087803b15801561078b57600080fd5b505af115801561079f573d6000803e3d6000fd5b5050505050505b8b73ffffffffffffffffffffffffffffffffffffffff167fa95ccb6ea843871c0e81afc0fa4387c0bb5b36ad97007a97b3ea802f443c5a178c8c8c8c8c8c6040516107f6969594939291906119dc565b60405180910390a2505050505050505050505050565b6040518060400160405280601e81526020017f726f636b65744d65726b6c654469737472696275746f724d61696e6e65740000815250306108ff8260405160200180807f636f6e74726163742e616464726573730000000000000000000000000000000081525060100182805190602001908083835b602083106108bf57805182527fffffffffffffffffffffffffffffffffffffffffffffffffffffffffffffffe09092019160209182019101610882565b6001836020036101000a03801982511681845116808217855250505050505090500191505060405160208183030381529060405280519060200120610ddb565b73ffffffffffffffffffffffffffffffffffffffff168173ffffffffffffffffffffffffffffffffffffffff161461099857604080517f08c379a000000000000000000000000000000000000000000000000000000000815260206004820152601c60248201527f496e76616c6964206f72206f7574646174656420636f6e747261637400000000604482015290519081900360640190fd5b6040518060400160405280601181526020017f726f636b657452657761726473506f6f6c00000000000000000000000000000081525033610a4a8260405160200180807f636f6e74726163742e61646472657373000000000000000000000000000000008152506010018280519060200190808383602083106108bf57805182527fffffffffffffffffffffffffffffffffffffffffffffffffffffffffffffffe09092019160209182019101610882565b73ffffffffffffffffffffffffffffffffffffffff168173ffffffffffffffffffffffffffffffffffffffff1614610ae357604080517f08c379a000000000000000000000000000000000000000000000000000000000815260206004820152601c60248201527f496e76616c6964206f72206f7574646174656420636f6e747261637400000000604482015290519081900360640190fd5b600088604051602001610af691906118d5565b6040516020818303038152906040528051906020012090506000801b610b1b826112c2565b14610b2557600080fd5b610b2f8189611336565b6000610b5a7f0000000000000000000000000000000000000000000000000000000000000000610ddb565b90508615610bc4578073ffffffffffffffffffffffffffffffffffffffff166398ea5fca886040518263ffffffff1660e01b81526004016000604051808303818588803b158015610baa57600080fd5b505af1158015610bbe573d6000803e3d6000fd5b50505050505b8715610d27576000610bf57f0000000000000000000000000000000000000000000000000000000000000000610ddb565b6040517f095ea7b300000000000000000000000000000000000000000000000000000000815290915073ffffffffffffffffffffffffffffffffffffffff82169063095ea7b390610c4c9085908d906004016119b6565b602060405180830381600087803b158015610c6657600080fd5b505af1158015610c7a573d6000803e3d6000fd5b505050506040513d601f19601f82011682018060405250810190610c9e91906117c6565b506040517ff444295800000000000000000000000000000000000000000000000000000000815273ffffffffffffffffffffffffffffffffffffffff83169063f444295890610cf39084908d90600401611ac4565b600060405180830381600087803b158015610d0d57600080fd5b505af1158015610d21573d6000803e3d6000fd5b50505050505b50505050505050505050565b60008060019054906101000a900473ffffffffffffffffffffffffffffffffffffffff1673ffffffffffffffffffffffffffffffffffffffff1663bd02d0f5836040518263ffffffff1660e01b81526004018082815260200191505060206040518083038186803b158015610da757600080fd5b505afa158015610dbb573d6000803e3d6000fd5b505050506040513d6020811015610dd157600080fd5b505190505b919050565b60008060019054906101000a900473ffffffffffffffffffffffffffffffffffffffff1673ffffffffffffffffffffffffffffffffffffffff166321f8a721836040518263ffffffff1660e01b81526004018082815260200191505060206040518083038186803b158015610da757600080fd5b60006101008a8a6000818110610e6157fe5b9050602002013581610e6f57fe5b04905060008882604051602001610e87929190611906565b6040516020818303038152906040528051906020012090506000610eaa82610d33565b905060005b8b8110156110af5760008a8a83818110610ec557fe5b905060200201351180610eea57506000888883818110610ee157fe5b90506020020135115b610f20576040517f08c379a000000000000000000000000000000000000000000000000000000000815260040161033e90611a8d565b6101008d8d83818110610f2f57fe5b9050602002013581610f3d57fe5b048414610fa557610f4e83836113cb565b6101008d8d83818110610f5d57fe5b9050602002013581610f6b57fe5b0493508a84604051602001610f81929190611906565b604051602081830303815290604052805190602001209250610fa283610d33565b91505b60006101008e8e84818110610fb657fe5b9050602002013581610fc457fe5b0690506001811b838116811415611007576040517f08c379a000000000000000000000000000000000000000000000000000000000815260040161033e90611b55565b6110678f8f8581811061101657fe5b905060200201358e8e8e8781811061102a57fe5b905060200201358d8d8881811061103d57fe5b905060200201358c8c8981811061105057fe5b90506020028101906110629190611c11565b611444565b61109d576040517f08c379a000000000000000000000000000000000000000000000000000000000815260040161033e90611bc3565b5060019081901b929092179101610eaf565b506110ba82826113cb565b505050505050505050505050565b60008282018381101561113c57604080517f08c379a000000000000000000000000000000000000000000000000000000000815260206004820152601b60248201527f536166654d6174683a206164646974696f6e206f766572666c6f770000000000604482015290519081900360640190fd5b9392505050565b6000828211156111b457604080517f08c379a000000000000000000000000000000000000000000000000000000000815260206004820152601e60248201527f536166654d6174683a207375627472616374696f6e206f766572666c6f770000604482015290519081900360640190fd5b50900390565b6000806112388360405160200180807f636f6e74726163742e61646472657373000000000000000000000000000000008152506010018280519060200190808383602083106108bf57805182527fffffffffffffffffffffffffffffffffffffffffffffffffffffffffffffffe09092019160209182019101610882565b905073ffffffffffffffffffffffffffffffffffffffff81166112bc57604080517f08c379a000000000000000000000000000000000000000000000000000000000815260206004820152601260248201527f436f6e7472616374206e6f7420666f756e640000000000000000000000000000604482015290519081900360640190fd5b92915050565b60008060019054906101000a900473ffffffffffffffffffffffffffffffffffffffff1673ffffffffffffffffffffffffffffffffffffffff1663a6ed563e836040518263ffffffff1660e01b81526004018082815260200191505060206040518083038186803b158015610da757600080fd5b60008054604080517f4e91db080000000000000000000000000000000000000000000000000000000081526004810186905260248101859052905161010090920473ffffffffffffffffffffffffffffffffffffffff1692634e91db089260448084019382900301818387803b1580156113af57600080fd5b505af11580156113c3573d6000803e3d6000fd5b505050505050565b60008054604080517fe2a4853a0000000000000000000000000000000000000000000000000000000081526004810186905260248101859052905161010090920473ffffffffffffffffffffffffffffffffffffffff169263e2a4853a9260448084019382900301818387803b1580156113af57600080fd5b600080866000878760405160200161145f9493929190611893565b60405160208183030381529060405280519060200120905060008860405160200161148a91906118d5565b60405160208183030381529060405280519060200120905060006114ad826112c2565b90506114ef8686808060200260200160405190810160405280939291908181526020018383602002808284376000920191909152508592508791506114fd9050565b9a9950505050505050505050565b600081815b855181101561159b57600086828151811061151957fe5b602002602001015190508083116115605782816040516020018083815260200182815260200192505050604051602081830303815290604052805190602001209250611592565b808360405160200180838152602001828152602001925050506040516020818303038152906040528051906020012092505b50600101611502565b509092149392505050565b8035610dd681611c76565b60008083601f8401126115c2578182fd5b50813567ffffffffffffffff8111156115d9578182fd5b60208301915083602080830285010111156115f357600080fd5b9250929050565b60006020828403121561160b578081fd5b815161113c81611c76565b600080600080600080600080600060a08a8c031215611633578485fd5b893561163e81611c76565b985060208a013567ffffffffffffffff8082111561165a578687fd5b6116668d838e016115b1565b909a50985060408c013591508082111561167e578687fd5b61168a8d838e016115b1565b909850965060608c01359150808211156116a2578586fd5b6116ae8d838e016115b1565b909650945060808c01359150808211156116c6578384fd5b506116d38c828d016115b1565b915080935050809150509295985092959850929598565b60008060008060008060008060008060c08b8d031215611708578081fd5b6117118b6115a6565b995060208b013567ffffffffffffffff8082111561172d578283fd5b6117398e838f016115b1565b909b50995060408d0135915080821115611751578283fd5b61175d8e838f016115b1565b909950975060608d0135915080821115611775578283fd5b6117818e838f016115b1565b909750955060808d0135915080821115611799578283fd5b506117a68d828e016115b1565b9150809450508092505060a08b013590509295989b9194979a5092959850565b6000602082840312156117d7578081fd5b8151801515811461113c578182fd5b600080604083850312156117f8578182fd5b82359150602083013561180a81611c76565b809150509250929050565b6000806000806080858703121561182a578384fd5b5050823594602084013594506040840135936060013592509050565b60008284527f07ffffffffffffffffffffffffffffffffffffffffffffffffffffffffffffff831115611877578081fd5b6020830280836020870137939093016020019283525090919050565b60609490941b7fffffffffffffffffffffffffffffffffffffffff00000000000000000000000016845260148401929092526034830152605482015260740190565b7f726577617264732e6d65726b6c652e726f6f74000000000000000000000000008152601381019190915260330190565b7f726577617264732e696e74657276616c2e636c61696d65640000000000000000815260609290921b7fffffffffffffffffffffffffffffffffffffffff000000000000000000000000166018830152602c820152604c0190565b90565b73ffffffffffffffffffffffffffffffffffffffff91909116815260200190565b73ffffffffffffffffffffffffffffffffffffffff9384168152919092166020820152604081019190915260600190565b73ffffffffffffffffffffffffffffffffffffffff929092168252602082015260400190565b6000606082526119f060608301888a611846565b8281036020840152611a03818789611846565b90508281036040840152611a18818587611846565b9998505050505050505050565b901515815260200190565b6020808252602e908201527f43616e206f6e6c7920636c61696d2066726f6d206e6f6465206f72207769746860408201527f64726177616c2061646472657373000000000000000000000000000000000000606082015260800190565b6020808252600e908201527f496e76616c696420616d6f756e74000000000000000000000000000000000000604082015260600190565b6060808252601e908201527f726f636b65744d65726b6c654469737472696275746f724d61696e6e65740000608082015273ffffffffffffffffffffffffffffffffffffffff929092166020830152604082015260a00190565b60208082526013908201527f4661696c656420746f20636c61696d2045544800000000000000000000000000604082015260600190565b6020808252600f908201527f416c726561647920636c61696d65640000000000000000000000000000000000604082015260600190565b60208082526014908201527f496e76616c6964207374616b6520616d6f756e74000000000000000000000000604082015260600190565b6020808252600d908201527f496e76616c69642070726f6f6600000000000000000000000000000000000000604082015260600190565b90815260200190565b60ff91909116815260200190565b60008083357fffffffffffffffffffffffffffffffffffffffffffffffffffffffffffffffe1843603018112611c45578283fd5b83018035915067ffffffffffffffff821115611c5f578283fd5b60209081019250810236038213156115f357600080fd5b73ffffffffffffffffffffffffffffffffffffffff81168114611c9857600080fd5b5056fea2646970667358221220b6097e74d89eeca6c9c0f52df4c9bdc6f40b28f5919bcdb064fe47ba331e4eaf64736f6c63430007060033",
  "immutableReferences": {
    "23429": [
      {
        "length": 32,
        "start": 445
      },
      {
        "length": 32,
        "start": 2870
      }
    ],
    "23431": [
      {
        "length": 32,
        "start": 490
      },
      {
        "length": 32,
        "start": 3025
      }
    ]
  },
  "source": "pragma solidity 0.7.6;\r\npragma abicoder v2;\r\n\r\n// SPDX-License-Identifier: GPL-3.0-only\r\n\r\nimport \"../RocketBase.sol\";\r\nimport \"../../interface/token/RocketTokenRPLInterface.sol\";\r\nimport \"../../interface/RocketVaultInterface.sol\";\r\nimport \"../../interface/node/RocketNodeStakingInterface.sol\";\r\nimport \"../../interface/rewards/RocketRewardsRelayInterface.sol\";\r\nimport \"../../interface/rewards/RocketSmoothingPoolInterface.sol\";\r\nimport \"../../interface/RocketVaultWithdrawerInterface.sol\";\r\n\r\nimport \"@openzeppelin/contracts/cryptography/MerkleProof.sol\";\r\n\r\n/*\r\n* On mainnet, the relay and the distributor are the same contract as there is no need for an intermediate contract to\r\n* handle cross-chain messaging.\r\n*/\r\n\r\ncontract RocketMerkleDistributorMainnet is RocketBase, RocketRewardsRelayInterface, RocketVaultWithdrawerInterface {\r\n\r\n    // Libs\r\n    using SafeMath for uint;\r\n\r\n    // Events\r\n    event RewardsClaimed(address indexed claimer, uint256[] rewardIndex, uint256[] amountRPL, uint256[] amountETH);\r\n\r\n    // Constants\r\n    uint256 constant network = 0;\r\n\r\n    // Immutables\r\n    bytes32 immutable rocketVaultKey;\r\n    bytes32 immutable rocketTokenRPLKey;\r\n\r\n    // Allow receiving ETH\r\n    receive() payable external {}\r\n\r\n    // Construct\r\n    constructor(RocketStorageInterface _rocketStorageAddress) RocketBase(_rocketStorageAddress) {\r\n        // Version\r\n        version = 1;\r\n        // Precompute keys\r\n        rocketVaultKey = keccak256(abi.encodePacked(\"contract.address\", \"rocketVault\"));\r\n        rocketTokenRPLKey = keccak256(abi.encodePacked(\"contract.address\", \"rocketTokenRPL\"));\r\n        // Set this contract as the relay for network 0\r\n        setAddress(keccak256(abi.encodePacked(\"rewards.relay.address\", uint256(0))), address(this));\r\n    }\r\n\r\n    // Called by RocketRewardsPool to include a snapshot into this distributor\r\n    function relayRewards(uint256 _rewardIndex, bytes32 _root, uint256 _rewardsRPL, uint256 _rewardsETH) external override onlyLatestContract(\"rocketMerkleDistributorMainnet\", address(this)) onlyLatestContract(\"rocketRewardsPool\", msg.sender) {\r\n        bytes32 key = keccak256(abi.encodePacked('rewards.merkle.root', _rewardIndex));\r\n        require(getBytes32(key) == bytes32(0));\r\n        setBytes32(key, _root);\r\n        // Send the ETH and RPL to the vault\r\n        RocketVaultInterface rocketVault = RocketVaultInterface(getAddress(rocketVaultKey));\r\n        if (_rewardsETH > 0) {\r\n            rocketVault.depositEther{value: _rewardsETH}();\r\n        }\r\n        if (_rewardsRPL > 0) {\r\n            IERC20 rocketTokenRPL = IERC20(getAddress(rocketTokenRPLKey));\r\n            rocketTokenRPL.approve(address(rocketVault), _rewardsRPL);\r\n            rocketVault.depositToken(\"rocketMerkleDistributorMainnet\", rocketTokenRPL, _rewardsRPL);\r\n        }\r\n    }\r\n\r\n    // Reward recipients can call this method with a merkle proof to claim rewards for one or more reward intervals\r\n    function claim(address _nodeAddress, uint256[] calldata _rewardIndex, uint256[] calldata _amountRPL, uint256[] calldata _amountETH, bytes32[][] calldata _merkleProof) external override {\r\n        claimAndStake(_nodeAddress, _rewardIndex, _amountRPL, _amountETH, _merkleProof, 0);\r\n    }\r\n\r\n    // Node operators can call this method to claim rewards for one or more reward intervals and specify an amount of RPL to stake at the same time\r\n    function claimAndStake(address _nodeAddress, uint256[] calldata _rewardIndex, uint256[] calldata _amountRPL, uint256[] calldata _amountETH, bytes32[][] calldata _merkleProof, uint256 _stakeAmount) public override {\r\n        // Get contracts\r\n        RocketVaultInterface rocketVault = RocketVaultInterface(getAddress(rocketVaultKey));\r\n        address rocketTokenRPLAddress = getAddress(rocketTokenRPLKey);\r\n        // Verify claims\r\n        _claim(_rewardIndex, _nodeAddress, _amountRPL, _amountETH, _merkleProof);\r\n        {\r\n            // Get withdrawal address\r\n            address withdrawalAddress = rocketStorage.getNodeWithdrawalAddress(_nodeAddress);\r\n            require(msg.sender == _nodeAddress || msg.sender == withdrawalAddress, \"Can only claim from node or withdrawal address\");\r\n            // Calculate totals\r\n            uint256 totalAmountRPL = 0;\r\n            uint256 totalAmountETH = 0;\r\n            for (uint256 i = 0; i < _rewardIndex.length; i++) {\r\n                totalAmountRPL = totalAmountRPL.add(_amountRPL[i]);\r\n                totalAmountETH = totalAmountETH.add(_amountETH[i]);\r\n            }\r\n            // Validate input\r\n            require(_stakeAmount <= totalAmountRPL, \"Invalid stake amount\");\r\n            // Distribute any remaining tokens to the node's withdrawal address\r\n            uint256 remaining = totalAmountRPL.sub(_stakeAmount);\r\n            if (remaining > 0) {\r\n                rocketVault.withdrawToken(withdrawalAddress, IERC20(rocketTokenRPLAddress), remaining);\r\n            }\r\n            // Distribute ETH\r\n            if (totalAmountETH > 0) {\r\n                rocketVault.withdrawEther(totalAmountETH);\r\n                (bool result,) = withdrawalAddress.call{value: totalAmountETH}(\"\");\r\n                require(result, \"Failed to claim ETH\");\r\n            }\r\n        }\r\n        // Restake requested amount\r\n        if (_stakeAmount > 0) {\r\n            RocketTokenRPLInterface rocketTokenRPL = RocketTokenRPLInterface(rocketTokenRPLAddress);\r\n            RocketNodeStakingInterface rocketNodeStaking = RocketNodeStakingInterface(getContractAddress(\"rocketNodeStaking\"));\r\n            rocketVault.withdrawToken(address(this), IERC20(rocketTokenRPLAddress), _stakeAmount);\r\n            rocketTokenRPL.approve(address(rocketNodeStaking), _stakeAmount);\r\n            rocketNodeStaking.stakeRPLFor(_nodeAddress, _stakeAmount);\r\n        }\r\n        // Emit event\r\n        emit RewardsClaimed(_nodeAddress, _rewardIndex, _amountRPL, _amountETH);\r\n    }\r\n\r\n    // Verifies the given data exists as a leaf nodes for the specified reward interval and marks them as claimed if they are valid\r\n    // Note: this function is optimised for gas when _rewardIndex is ordered numerically\r\n    function _claim(uint256[] calldata _rewardIndex, address _nodeAddress, uint256[] calldata _amountRPL, uint256[] calldata _amountETH, bytes32[][] calldata _merkleProof) internal {\r\n        // Set initial parameters to the first reward index in the array\r\n        uint256 indexWordIndex = _rewardIndex[0] / 256;\r\n        bytes32 claimedWordKey = keccak256(abi.encodePacked('rewards.interval.claimed', _nodeAddress, indexWordIndex));\r\n        uint256 claimedWord = getUint(claimedWordKey);\r\n        // Loop over every entry\r\n        for (uint256 i = 0; i < _rewardIndex.length; i++) {\r\n            // Prevent accidental claim of 0\r\n            require(_amountRPL[i] > 0 || _amountETH[i] > 0, \"Invalid amount\");\r\n            // Check if this entry has a different word index than the previous\r\n            if (indexWordIndex != _rewardIndex[i] / 256) {\r\n                // Store the previous word\r\n                setUint(claimedWordKey, claimedWord);\r\n                // Load the word for this entry\r\n                indexWordIndex = _rewardIndex[i] / 256;\r\n                claimedWordKey = keccak256(abi.encodePacked('rewards.interval.claimed', _nodeAddress, indexWordIndex));\r\n                claimedWord = getUint(claimedWordKey);\r\n            }\r\n            // Calculate the bit index for this entry\r\n            uint256 indexBitIndex = _rewardIndex[i] % 256;\r\n            // Ensure the bit is not yet set on this word\r\n            uint256 mask = (1 << indexBitIndex);\r\n            require(claimedWord & mask != mask, \"Already claimed\");\r\n            // Verify the merkle proof\r\n            require(_verifyProof(_rewardIndex[i], _nodeAddress, _amountRPL[i], _amountETH[i], _merkleProof[i]), \"Invalid proof\");\r\n            // Set the bit for the current reward index\r\n            claimedWord = claimedWord | (1 << indexBitIndex);\r\n        }\r\n        // Store the word\r\n        setUint(claimedWordKey, claimedWord);\r\n    }\r\n\r\n    // Verifies that the\r\n    function _verifyProof(uint256 _rewardIndex, address _nodeAddress, uint256 _amountRPL, uint256 _amountETH, bytes32[] calldata _merkleProof) internal view returns (bool) {\r\n        bytes32 node = keccak256(abi.encodePacked(_nodeAddress, network, _amountRPL, _amountETH));\r\n        bytes32 key = keccak256(abi.encodePacked('rewards.merkle.root', _rewardIndex));\r\n        bytes32 merkleRoot = getBytes32(key);\r\n        return MerkleProof.verify(_merkleProof, merkleRoot, node);\r\n    }\r\n\r\n    // Returns true if the given claimer has claimed for the given reward interval\r\n    function isClaimed(uint256 _rewardIndex, address _claimer) public override view returns (bool) {\r\n        uint256 indexWordIndex = _rewardIndex / 256;\r\n        uint256 indexBitIndex = _rewardIndex % 256;\r\n        uint256 claimedWord = getUint(keccak256(abi.encodePacked('rewards.interval.claimed', _claimer, indexWordIndex)));\r\n        uint256 mask = (1 << indexBitIndex);\r\n        return claimedWord & mask == mask;\r\n    }\r\n\r\n    // Allow receiving ETH from RocketVault, no action required\r\n    function receiveVaultWithdrawalETH() external override payable {}\r\n}\r\n",
  "sourcePath": "/Users/dmccartney/src/rocket-pool/rocketpool/contracts/contract/rewards/RocketMerkleDistributorMainnet.sol",
  "compiler": {
    "name": "solc",
    "version": "0.7.6+commit.7338295f.Emscripten.clang"
  },
  "schemaVersion": "3.4.2",
  "updatedAt": "2022-09-22T03:32:02.905Z",
  "devdoc": {
    "kind": "dev",
    "methods": {},
    "version": 1
  },
  "userdoc": {
    "kind": "user",
    "methods": {},
    "version": 1
  }
}