{
  "contractName": "RocketDAOProtocolSettingsNetwork",
  "abi": [
    {
      "inputs": [
        {
          "internalType": "contract RocketStorageInterface",
          "name": "_rocketStorageAddress",
          "type": "address"
        }
      ],
      "stateMutability": "nonpayable",
      "type": "constructor"
    },
    {
      "inputs": [
        {
          "internalType": "string",
          "name": "_settingPath",
          "type": "string"
        }
      ],
      "name": "getSettingAddress",
      "outputs": [
        {
          "internalType": "address",
          "name": "",
          "type": "address"
        }
      ],
      "stateMutability": "view",
      "type": "function"
    },
    {
      "inputs": [
        {
          "internalType": "string",
          "name": "_settingPath",
          "type": "string"
        }
      ],
      "name": "getSettingBool",
      "outputs": [
        {
          "internalType": "bool",
          "name": "",
          "type": "bool"
        }
      ],
      "stateMutability": "view",
      "type": "function"
    },
    {
      "inputs": [
        {
          "internalType": "string",
          "name": "_settingPath",
          "type": "string"
        }
      ],
      "name": "getSettingUint",
      "outputs": [
        {
          "internalType": "uint256",
          "name": "",
          "type": "uint256"
        }
      ],
      "stateMutability": "view",
      "type": "function"
    },
    {
      "inputs": [
        {
          "internalType": "string",
          "name": "_settingPath",
          "type": "string"
        },
        {
          "internalType": "address",
          "name": "_value",
          "type": "address"
        }
      ],
      "name": "setSettingAddress",
      "outputs": [],
      "stateMutability": "nonpayable",
      "type": "function"
    },
    {
      "inputs": [
        {
          "internalType": "string",
          "name": "_settingPath",
          "type": "string"
        },
        {
          "internalType": "bool",
          "name": "_value",
          "type": "bool"
        }
      ],
      "name": "setSettingBool",
      "outputs": [],
      "stateMutability": "nonpayable",
      "type": "function"
    },
    {
      "inputs": [],
      "name": "version",
      "outputs": [
        {
          "internalType": "uint8",
          "name": "",
          "type": "uint8"
        }
      ],
      "stateMutability": "view",
      "type": "function"
    },
    {
      "inputs": [
        {
          "internalType": "string",
          "name": "_settingPath",
          "type": "string"
        },
        {
          "internalType": "uint256",
          "name": "_value",
          "type": "uint256"
        }
      ],
      "name": "setSettingUint",
      "outputs": [],
      "stateMutability": "nonpayable",
      "type": "function"
    },
    {
      "inputs": [],
      "name": "getNodeConsensusThreshold",
      "outputs": [
        {
          "internalType": "uint256",
          "name": "",
          "type": "uint256"
        }
      ],
      "stateMutability": "view",
      "type": "function"
    },
    {
      "inputs": [],
      "name": "getSubmitBalancesEnabled",
      "outputs": [
        {
          "internalType": "bool",
          "name": "",
          "type": "bool"
        }
      ],
      "stateMutability": "view",
      "type": "function"
    },
    {
      "inputs": [],
      "name": "getSubmitBalancesFrequency",
      "outputs": [
        {
          "internalType": "uint256",
          "name": "",
          "type": "uint256"
        }
      ],
      "stateMutability": "view",
      "type": "function"
    },
    {
      "inputs": [],
      "name": "getSubmitPricesEnabled",
      "outputs": [
        {
          "internalType": "bool",
          "name": "",
          "type": "bool"
        }
      ],
      "stateMutability": "view",
      "type": "function"
    },
    {
      "inputs": [],
      "name": "getSubmitPricesFrequency",
      "outputs": [
        {
          "internalType": "uint256",
          "name": "",
          "type": "uint256"
        }
      ],
      "stateMutability": "view",
      "type": "function"
    },
    {
      "inputs": [],
      "name": "getMinimumNodeFee",
      "outputs": [
        {
          "internalType": "uint256",
          "name": "",
          "type": "uint256"
        }
      ],
      "stateMutability": "view",
      "type": "function"
    },
    {
      "inputs": [],
      "name": "getTargetNodeFee",
      "outputs": [
        {
          "internalType": "uint256",
          "name": "",
          "type": "uint256"
        }
      ],
      "stateMutability": "view",
      "type": "function"
    },
    {
      "inputs": [],
      "name": "getMaximumNodeFee",
      "outputs": [
        {
          "internalType": "uint256",
          "name": "",
          "type": "uint256"
        }
      ],
      "stateMutability": "view",
      "type": "function"
    },
    {
      "inputs": [],
      "name": "getNodeFeeDemandRange",
      "outputs": [
        {
          "internalType": "uint256",
          "name": "",
          "type": "uint256"
        }
      ],
      "stateMutability": "view",
      "type": "function"
    },
    {
      "inputs": [],
      "name": "getTargetRethCollateralRate",
      "outputs": [
        {
          "internalType": "uint256",
          "name": "",
          "type": "uint256"
        }
      ],
      "stateMutability": "view",
      "type": "function"
    },
    {
      "inputs": [],
      "name": "getRethDepositDelay",
      "outputs": [
        {
          "internalType": "uint256",
          "name": "",
          "type": "uint256"
        }
      ],
      "stateMutability": "view",
      "type": "function"
    }
  ],
  "bytecode": "0x608060405260008054610100600160a81b03191690553480156200002257600080fd5b50604051620020df380380620020df833981810160405260208110156200004857600080fd5b505160408051808201825260078152666e6574776f726b60c81b602080830191825260008054610100600160a81b0319166101006001600160a01b0388160217905592517f64616f2e70726f746f636f6c2e73657474696e672e00000000000000000000009381019384528251859484939092603501918083835b60208310620000e45780518252601f199092019160209182019101620000c3565b51815160209384036101000a60001901801990921691161790526040805192909401828103601f1901835280855282519282019290922060018181556000805460ff19169091179055828201526719195c1b1bde595960c21b8285015283518083036028018152604890920190935280519201919091206200016d955093506200049a92505050565b620004935760408051808201909152601b81527f6e6574776f726b2e636f6e73656e7375732e7468726573686f6c6400000000006020820152620001ba90670713e24c4373000062000529565b60408051808201909152601f81527f6e6574776f726b2e7375626d69742e62616c616e6365732e656e61626c6564006020820152620001fb9060016200072e565b62000222604051806060016040528060218152602001620020be6021913961168062000529565b60408051808201909152601d81527f6e6574776f726b2e7375626d69742e7072696365732e656e61626c65640000006020820152620002639060016200072e565b60408051808201909152601f81527f6e6574776f726b2e7375626d69742e7072696365732e6672657175656e6379006020820152620002a59061168062000529565b60408051808201909152601881527f6e6574776f726b2e6e6f64652e6665652e6d696e696d756d00000000000000006020820152620002ed90670214e8348c4f000062000529565b60408051808201909152601781527f6e6574776f726b2e6e6f64652e6665652e74617267657400000000000000000060208201526200033590670214e8348c4f000062000529565b60408051808201909152601881527f6e6574776f726b2e6e6f64652e6665652e6d6178696d756d000000000000000060208201526200037d90670214e8348c4f000062000529565b60408051808201909152601d81527f6e6574776f726b2e6e6f64652e6665652e64656d616e642e72616e67650000006020820152620003c6906808ac7230489e80000062000529565b60408051808201909152601e81527f6e6574776f726b2e726574682e636f6c6c61746572616c2e746172676574000060208201526200040e9067016345785d8a000062000529565b60408051808201909152601a81527f6e6574776f726b2e726574682e6465706f7369742e64656c61790000000000006020820152620004509061168062000529565b60018054604080516020808201939093526719195c1b1bde595960c21b818301528151602881830301815260489091019091528051910120620004939162000889565b5062000aa1565b60008060019054906101000a90046001600160a01b03166001600160a01b0316637ae1cfca836040518263ffffffff1660e01b81526004018082815260200191505060206040518083038186803b158015620004f557600080fd5b505afa1580156200050a573d6000803e3d6000fd5b505050506040513d60208110156200052157600080fd5b505192915050565b600154604080516020808201939093526719195c1b1bde595960c21b8183015281516028818303018152604890910190915280519101206200056b906200049a565b15620005f95760408051808201909152601a81527f726f636b657444414f50726f746f636f6c50726f706f73616c7300000000000060208201523390620005b290620008fb565b6001600160a01b031614620005f95760405162461bcd60e51b8152600401808060200182810382526039815260200180620020596039913960400191505060405180910390fd5b60408051808201909152601a81527f6e6574776f726b2e726574682e6465706f7369742e64656c61790000000000006020918201528251908301207f2ed210192b9ae9b593f47081c931cdb32623c8e33301bbf99a4072108456fd0114156200069f576116808111156200069f5760405162461bcd60e51b815260040180806020018281038252602c81526020018062002092602c913960400191505060405180910390fd5b6200072a600154836040516020018083815260200182805190602001908083835b60208310620006e15780518252601f199092019160209182019101620006c0565b6001836020036101000a038019825116818451168082178552505050505050905001925050506040516020818303038152906040528051906020012082620009f260201b60201c565b5050565b600154604080516020808201939093526719195c1b1bde595960c21b81830152815160288183030181526048909101909152805191012062000770906200049a565b15620007fe5760408051808201909152601a81527f726f636b657444414f50726f746f636f6c50726f706f73616c7300000000000060208201523390620007b790620008fb565b6001600160a01b031614620007fe5760405162461bcd60e51b8152600401808060200182810382526039815260200180620020596039913960400191505060405180910390fd5b6200072a600154836040516020018083815260200182805190602001908083835b60208310620008405780518252601f1990920191602091820191016200081f565b6001836020036101000a0380198251168184511680821785525050505050509050019250505060405160208183030381529060405280519060200120826200088960201b60201c565b600080546040805163abfdcced60e01b815260048101869052841515602482015290516101009092046001600160a01b03169263abfdcced9260448084019382900301818387803b158015620008de57600080fd5b505af1158015620008f3573d6000803e3d6000fd5b505050505050565b600080620009998360405160200180806f636f6e74726163742e6164647265737360801b81525060100182805190602001908083835b60208310620009525780518252601f19909201916020918201910162000931565b6001836020036101000a0380198251168184511680821785525050505050509050019150506040516020818303038152906040528051906020012062000a4660201b60201c565b90506001600160a01b038116620009ec576040805162461bcd60e51b815260206004820152601260248201527110dbdb9d1c9858dd081b9bdd08199bdd5b9960721b604482015290519081900360640190fd5b92915050565b6000805460408051637152429d60e11b8152600481018690526024810185905290516101009092046001600160a01b03169263e2a4853a9260448084019382900301818387803b158015620008de57600080fd5b60008060019054906101000a90046001600160a01b03166001600160a01b03166321f8a721836040518263ffffffff1660e01b81526004018082815260200191505060206040518083038186803b158015620004f557600080fd5b6115a88062000ab16000396000f3fe608060405234801561001057600080fd5b50600436106101365760003560e01c8063ac93f57f116100b2578063d6cd921e11610081578063e287671311610066578063e2876713146105ea578063f3d4149c146105f2578063fcdb60db146105fa57610136565b8063d6cd921e14610524578063d7c8953c146105e257610136565b8063ac93f57f14610466578063add7a12d1461046e578063c56710ff14610476578063cecaef211461051c57610136565b80632a57d0181161010957806354fd4d50116100ee57806354fd4d50146103985780635e9d4044146103b6578063a03eec101461045e57610136565b80632a57d018146102e6578063316074181461039057610136565b80631386a2441461013b5780631bfcc24e1461020a5780631d5e50ea146102c45780631f66e8ed146102de575b600080fd5b6101e16004803603602081101561015157600080fd5b81019060208101813564010000000081111561016c57600080fd5b82018360208201111561017e57600080fd5b803590602001918460018302840111640100000000831117156101a057600080fd5b91908080601f016020809104026020016040519081016040528093929190818152602001838380828437600092019190915250929550610602945050505050565b6040805173ffffffffffffffffffffffffffffffffffffffff9092168252519081900360200190f35b6102b06004803603602081101561022057600080fd5b81019060208101813564010000000081111561023b57600080fd5b82018360208201111561024d57600080fd5b8035906020019184600183028401116401000000008311171561026f57600080fd5b91908080601f0160208091040260200160405190810160405280939291908181526020018383808284376000920191909152509295506106a8945050505050565b604080519115158252519081900360200190f35b6102cc610748565b60408051918252519081900360200190f35b6102cc610770565b61038e600480360360408110156102fc57600080fd5b81019060208101813564010000000081111561031757600080fd5b82018360208201111561032957600080fd5b8035906020019184600183028401116401000000008311171561034b57600080fd5b91908080601f01602080910402602001604051908101604052809392919081815260200183838082843760009201919091525092955050505035151590506107b0565b005b6102cc610972565b6103a06109b2565b6040805160ff9092168252519081900360200190f35b61038e600480360360408110156103cc57600080fd5b8101906020810181356401000000008111156103e757600080fd5b8201836020820111156103f957600080fd5b8035906020019184600183028401116401000000008311171561041b57600080fd5b91908080601f01602080910402602001604051908101604052809392919081815260200183838082843760009201919091525092955050913592506109bb915050565b6102cc610c36565b6102cc610c76565b6102cc610cb6565b6102cc6004803603602081101561048c57600080fd5b8101906020810181356401000000008111156104a757600080fd5b8201836020820111156104b957600080fd5b803590602001918460018302840111640100000000831117156104db57600080fd5b91908080601f016020809104026020016040519081016040528093929190818152602001838380828437600092019190915250929550610cf2945050505050565b6102cc610d92565b61038e6004803603604081101561053a57600080fd5b81019060208101813564010000000081111561055557600080fd5b82018360208201111561056757600080fd5b8035906020019184600183028401116401000000008311171561058957600080fd5b91908080601f0160208091040260200160405190810160405280939291908181526020018383808284376000920191909152509295505050903573ffffffffffffffffffffffffffffffffffffffff169150610dd29050565b6102b0610f90565b6102cc610fd0565b6102cc611010565b6102b0611050565b60006106a2600154836040516020018083815260200182805190602001908083835b6020831061066157805182527fffffffffffffffffffffffffffffffffffffffffffffffffffffffffffffffe09092019160209182019101610624565b6001836020036101000a0380198251168184511680821785525050505050509050019250505060405160208183030381529060405280519060200120611090565b92915050565b60006106a2600154836040516020018083815260200182805190602001908083835b6020831061070757805182527fffffffffffffffffffffffffffffffffffffffffffffffffffffffffffffffe090920191602091820191016106ca565b6001836020036101000a0380198251168184511680821785525050505050509050019250505060405160208183030381529060405280519060200120611136565b600061076b60405180606001604052806021815260200161155260219139610cf2565b905090565b600061076b6040518060400160405280601b81526020017f6e6574776f726b2e636f6e73656e7375732e7468726573686f6c640000000000815250610cf2565b61080960015460405160200180828152602001807f6465706c6f79656400000000000000000000000000000000000000000000000081525060080191505060405160208183030381529060405280519060200120611136565b156108cf573373ffffffffffffffffffffffffffffffffffffffff166108636040518060400160405280601a81526020017f726f636b657444414f50726f746f636f6c50726f706f73616c730000000000008152506111aa565b73ffffffffffffffffffffffffffffffffffffffff16146108cf576040517f08c379a00000000000000000000000000000000000000000000000000000000081526004018080602001828103825260398152602001806114ed6039913960400191505060405180910390fd5b61096e600154836040516020018083815260200182805190602001908083835b6020831061092c57805182527fffffffffffffffffffffffffffffffffffffffffffffffffffffffffffffffe090920191602091820191016108ef565b6001836020036101000a0380198251168184511680821785525050505050509050019250505060405160208183030381529060405280519060200120826112ed565b5050565b600061076b6040518060400160405280601f81526020017f6e6574776f726b2e7375626d69742e7072696365732e6672657175656e637900815250610cf2565b60005460ff1681565b610a1460015460405160200180828152602001807f6465706c6f79656400000000000000000000000000000000000000000000000081525060080191505060405160208183030381529060405280519060200120611136565b15610ada573373ffffffffffffffffffffffffffffffffffffffff16610a6e6040518060400160405280601a81526020017f726f636b657444414f50726f746f636f6c50726f706f73616c730000000000008152506111aa565b73ffffffffffffffffffffffffffffffffffffffff1614610ada576040517f08c379a00000000000000000000000000000000000000000000000000000000081526004018080602001828103825260398152602001806114ed6039913960400191505060405180910390fd5b60408051808201909152601a81527f6e6574776f726b2e726574682e6465706f7369742e64656c61790000000000006020918201528251908301207f2ed210192b9ae9b593f47081c931cdb32623c8e33301bbf99a4072108456fd011415610b9757611680811115610b97576040517f08c379a000000000000000000000000000000000000000000000000000000000815260040180806020018281038252602c815260200180611526602c913960400191505060405180910390fd5b61096e600154836040516020018083815260200182805190602001908083835b60208310610bf457805182527fffffffffffffffffffffffffffffffffffffffffffffffffffffffffffffffe09092019160209182019101610bb7565b6001836020036101000a038019825116818451168082178552505050505050905001925050506040516020818303038152906040528051906020012082611383565b600061076b6040518060400160405280601781526020017f6e6574776f726b2e6e6f64652e6665652e746172676574000000000000000000815250610cf2565b600061076b6040518060400160405280601d81526020017f6e6574776f726b2e6e6f64652e6665652e64656d616e642e72616e6765000000815250610cf2565b600061076b6040518060400160405280601881526020017f6e6574776f726b2e6e6f64652e6665652e6d696e696d756d00000000000000008152505b60006106a2600154836040516020018083815260200182805190602001908083835b60208310610d5157805182527fffffffffffffffffffffffffffffffffffffffffffffffffffffffffffffffe09092019160209182019101610d14565b6001836020036101000a03801982511681845116808217855250505050505090500192505050604051602081830303815290604052805190602001206113fc565b600061076b6040518060400160405280601a81526020017f6e6574776f726b2e726574682e6465706f7369742e64656c6179000000000000815250610cf2565b610e2b60015460405160200180828152602001807f6465706c6f79656400000000000000000000000000000000000000000000000081525060080191505060405160208183030381529060405280519060200120611136565b15610ef1573373ffffffffffffffffffffffffffffffffffffffff16610e856040518060400160405280601a81526020017f726f636b657444414f50726f746f636f6c50726f706f73616c730000000000008152506111aa565b73ffffffffffffffffffffffffffffffffffffffff1614610ef1576040517f08c379a00000000000000000000000000000000000000000000000000000000081526004018080602001828103825260398152602001806114ed6039913960400191505060405180910390fd5b61096e600154836040516020018083815260200182805190602001908083835b60208310610f4e57805182527fffffffffffffffffffffffffffffffffffffffffffffffffffffffffffffffe09092019160209182019101610f11565b6001836020036101000a038019825116818451168082178552505050505050905001925050506040516020818303038152906040528051906020012082611470565b600061076b6040518060400160405280601d81526020017f6e6574776f726b2e7375626d69742e7072696365732e656e61626c65640000008152506106a8565b600061076b6040518060400160405280601e81526020017f6e6574776f726b2e726574682e636f6c6c61746572616c2e7461726765740000815250610cf2565b600061076b6040518060400160405280601881526020017f6e6574776f726b2e6e6f64652e6665652e6d6178696d756d0000000000000000815250610cf2565b600061076b6040518060400160405280601f81526020017f6e6574776f726b2e7375626d69742e62616c616e6365732e656e61626c6564008152506106a8565b60008060019054906101000a900473ffffffffffffffffffffffffffffffffffffffff1673ffffffffffffffffffffffffffffffffffffffff166321f8a721836040518263ffffffff1660e01b81526004018082815260200191505060206040518083038186803b15801561110457600080fd5b505afa158015611118573d6000803e3d6000fd5b505050506040513d602081101561112e57600080fd5b505192915050565b60008060019054906101000a900473ffffffffffffffffffffffffffffffffffffffff1673ffffffffffffffffffffffffffffffffffffffff16637ae1cfca836040518263ffffffff1660e01b81526004018082815260200191505060206040518083038186803b15801561110457600080fd5b6000806112698360405160200180807f636f6e74726163742e616464726573730000000000000000000000000000000081525060100182805190602001908083835b6020831061122957805182527fffffffffffffffffffffffffffffffffffffffffffffffffffffffffffffffe090920191602091820191016111ec565b6001836020036101000a03801982511681845116808217855250505050505090500191505060405160208183030381529060405280519060200120611090565b905073ffffffffffffffffffffffffffffffffffffffff81166106a257604080517f08c379a000000000000000000000000000000000000000000000000000000000815260206004820152601260248201527f436f6e7472616374206e6f7420666f756e640000000000000000000000000000604482015290519081900360640190fd5b60008054604080517fabfdcced000000000000000000000000000000000000000000000000000000008152600481018690528415156024820152905161010090920473ffffffffffffffffffffffffffffffffffffffff169263abfdcced9260448084019382900301818387803b15801561136757600080fd5b505af115801561137b573d6000803e3d6000fd5b505050505050565b60008054604080517fe2a4853a0000000000000000000000000000000000000000000000000000000081526004810186905260248101859052905161010090920473ffffffffffffffffffffffffffffffffffffffff169263e2a4853a9260448084019382900301818387803b15801561136757600080fd5b60008060019054906101000a900473ffffffffffffffffffffffffffffffffffffffff1673ffffffffffffffffffffffffffffffffffffffff1663bd02d0f5836040518263ffffffff1660e01b81526004018082815260200191505060206040518083038186803b15801561110457600080fd5b60008054604080517fca446dd90000000000000000000000000000000000000000000000000000000081526004810186905273ffffffffffffffffffffffffffffffffffffffff858116602483015291516101009093049091169263ca446dd99260448084019382900301818387803b15801561136757600080fdfe4f6e6c792044414f2050726f746f636f6c2050726f706f73616c7320636f6e74726163742063616e2075706461746520612073657474696e6772455448206465706f7369742064656c61792063616e6e6f7420657863656564203537363020626c6f636b736e6574776f726b2e7375626d69742e62616c616e6365732e6672657175656e6379a264697066735822122005451e63ad07b0751e4095a0f1cc44aed26e39d10ad8eff86fcadbd165ba3d7664736f6c634300070600334f6e6c792044414f2050726f746f636f6c2050726f706f73616c7320636f6e74726163742063616e2075706461746520612073657474696e6772455448206465706f7369742064656c61792063616e6e6f7420657863656564203537363020626c6f636b736e6574776f726b2e7375626d69742e62616c616e6365732e6672657175656e6379",
  "immutableReferences": {},
  "source": "pragma solidity 0.7.6;\n\n// SPDX-License-Identifier: GPL-3.0-only\n\nimport \"./RocketDAOProtocolSettings.sol\";\nimport \"../../../../interface/dao/protocol/settings/RocketDAOProtocolSettingsNetworkInterface.sol\";\n\n// Network auction settings\n\ncontract RocketDAOProtocolSettingsNetwork is RocketDAOProtocolSettings, RocketDAOProtocolSettingsNetworkInterface {\n\n    // Construct\n    constructor(RocketStorageInterface _rocketStorageAddress) RocketDAOProtocolSettings(_rocketStorageAddress, \"network\") {\n        // Set version\n        version = 1;\n        // Initialize settings on deployment\n        if(!getBool(keccak256(abi.encodePacked(settingNameSpace, \"deployed\")))) {\n            // Apply settings\n            setSettingUint(\"network.consensus.threshold\", 0.51 ether);      // 51%\n            setSettingBool(\"network.submit.balances.enabled\", true);\n            setSettingUint(\"network.submit.balances.frequency\", 5760);      // ~24 hours\n            setSettingBool(\"network.submit.prices.enabled\", true);\n            setSettingUint(\"network.submit.prices.frequency\", 5760);        // ~24 hours\n            setSettingUint(\"network.node.fee.minimum\", 0.15 ether);         // 15%\n            setSettingUint(\"network.node.fee.target\", 0.15 ether);          // 15%\n            setSettingUint(\"network.node.fee.maximum\", 0.15 ether);         // 15%\n            setSettingUint(\"network.node.fee.demand.range\", 160 ether);\n            setSettingUint(\"network.reth.collateral.target\", 0.1 ether);\n            setSettingUint(\"network.reth.deposit.delay\", 5760);            // ~24 hours\n            // Settings initialised\n            setBool(keccak256(abi.encodePacked(settingNameSpace, \"deployed\")), true);\n        }\n    }\n\n    // Update a setting, overrides inherited setting method with extra checks for this contract\n    function setSettingUint(string memory _settingPath, uint256 _value) override public onlyDAOProtocolProposal {\n        // Some safety guards for certain settings\n        // Prevent DAO from setting the withdraw delay greater than ~24 hours\n        if(keccak256(bytes(_settingPath)) == keccak256(bytes(\"network.reth.deposit.delay\"))) {\n            // Must be a future timestamp\n            require(_value <= 5760, \"rETH deposit delay cannot exceed 5760 blocks\");\n        }\n        // Update setting now\n        setUint(keccak256(abi.encodePacked(settingNameSpace, _settingPath)), _value);\n    }\n\n    // The threshold of trusted nodes that must reach consensus on oracle data to commit it\n    function getNodeConsensusThreshold() override external view returns (uint256) {\n        return getSettingUint(\"network.consensus.threshold\");\n    }\n\n    // Submit balances currently enabled (trusted nodes only)\n    function getSubmitBalancesEnabled() override external view returns (bool) {\n        return getSettingBool(\"network.submit.balances.enabled\");\n    }\n\n    // The frequency in blocks at which network balances should be submitted by trusted nodes\n    function getSubmitBalancesFrequency() override external view returns (uint256) {\n        return getSettingUint(\"network.submit.balances.frequency\");\n    }\n\n    // Submit prices currently enabled (trusted nodes only)\n    function getSubmitPricesEnabled() override external view returns (bool) {\n        return getSettingBool(\"network.submit.prices.enabled\");\n    }\n\n    // The frequency in blocks at which network prices should be submitted by trusted nodes\n    function getSubmitPricesFrequency() override external view returns (uint256) {\n        return getSettingUint(\"network.submit.prices.frequency\");\n    }\n\n    // The minimum node commission rate as a fraction of 1 ether\n    function getMinimumNodeFee() override external view returns (uint256) {\n        return getSettingUint(\"network.node.fee.minimum\");\n    }\n\n    // The target node commission rate as a fraction of 1 ether\n    function getTargetNodeFee() override external view returns (uint256) {\n        return getSettingUint(\"network.node.fee.target\");\n    }\n\n    // The maximum node commission rate as a fraction of 1 ether\n    function getMaximumNodeFee() override external view returns (uint256) {\n        return getSettingUint(\"network.node.fee.maximum\");\n    }\n\n    // The range of node demand values to base fee calculations on (from negative to positive value)\n    function getNodeFeeDemandRange() override external view returns (uint256) {\n        return getSettingUint(\"network.node.fee.demand.range\");\n    }\n\n    // Target rETH collateralization rate as a fraction of 1 ether\n    function getTargetRethCollateralRate() override external view returns (uint256) {\n        return getSettingUint(\"network.reth.collateral.target\");\n    }\n\n    // rETH withdraw delay in blocks\n    function getRethDepositDelay() override external view returns (uint256) {\n        return getSettingUint(\"network.reth.deposit.delay\");\n    }\n}\n",
  "sourcePath": "/Users/dmccartney/src/rocketpool/contracts/contract/dao/protocol/settings/RocketDAOProtocolSettingsNetwork.sol",
  "compiler": {
    "name": "solc",
    "version": "0.7.6+commit.7338295f.Emscripten.clang"
  },
  "schemaVersion": "3.4.2",
  "updatedAt": "2023-03-16T08:34:04.532Z",
  "devdoc": {
    "kind": "dev",
    "methods": {},
    "version": 1
  },
  "userdoc": {
    "kind": "user",
    "methods": {},
    "version": 1
  }
}